:020000040000fa
:080000000002040000000000f2
:020000040000fa
:10000800b02d0000b02d0000b02d0000b02d000074
:10001800b02d0000b02d0000b02d0000b02d000064
:10002800b02d0000b02d0000b02d00000e270000fc
:10003800b02d0000b02d0000b02d0000b02d000044
:10004800b02d0000b02d0000b02d0000b02d000034
:10005800b02d0000b02d0000b02d0000b02d000024
:10006800b02d0000b02d0000b02d0000b02d000014
:10007800b02d0000b02d0000b02d0000b02d000004
:10008800b02d0000b02d0000b02d0000bc2b0000ea
:10009800b02d0000b02d00005a2b0000b02d00003c
:1000a800b02d0000b02d0000b02d0000b02d0000d4
:1000b800b02d0000b02d0000b02d0000b02d0000c4
:1000c800b02d0000b02d0000b02d0000b02d0000b4
:1000d800b02d0000b02d0000b02d0000b02d0000a4
:1000e800b02d0000b02d0000b02d0000b02d000094
:1000f800b02d0000b02d0000b02d0000b02d000084
:10010800b02d0000b02d0000b02d0000b02d000073
:10011800b02d0000b02d0000b02d0000b02d000063
:10012800b02d0000b02d0000b02d0000b02d000053
:10013800b02d0000b02d0000b02d0000b02d000043
:10014800b02d0000b02d0000b02d0000b02d000033
:10015800b02d0000b02d0000b02d0000b02d000023
:10016800b02d0000b02d0000b02d0000b02d000013
:10017800b02d0000b02d0000b02d0000b02d000003
:10018800b02d0000b02d0000b02d0000b02d0000f3
:10019800b02d0000b02d0000b02d0000b02d0000e3
:1001a800b02d0000b02d0000b02d0000b02d0000d3
:1001b800b02d0000b02d0000b02d0000b02d0000c3
:1001c800b02d0000b02d0000b02d0000b02d0000b3
:1001d800b02d0000b02d0000b02d0000b02d0000a3
:1001e800b02d0000b02d0000b02d0000b02d000093
:0801f800b02d0000b02d000045
:020000040000fa
:10020800b02d0000b02d0000b02d0000b02d000072
:10021800b02d0000b02d0000b02d0000b02d000062
:10022800b02d0000b02d0000b02d00000e270000fa
:10023800b02d0000b02d0000b02d0000b02d000042
:10024800b02d0000b02d0000b02d0000b02d000032
:10025800b02d0000b02d0000b02d0000b02d000022
:10026800b02d0000b02d0000b02d0000b02d000012
:10027800b02d0000b02d0000b02d0000b02d000002
:10028800b02d0000b02d0000b02d0000bc2b0000e8
:10029800b02d0000b02d00005a2b0000b02d00003a
:1002a800b02d0000b02d0000b02d0000b02d0000d2
:1002b800b02d0000b02d0000b02d0000b02d0000c2
:1002c800b02d0000b02d0000b02d0000b02d0000b2
:1002d800b02d0000b02d0000b02d0000b02d0000a2
:1002e800b02d0000b02d0000b02d0000b02d000092
:1002f800b02d0000b02d0000b02d0000b02d000082
:10030800b02d0000b02d0000b02d0000b02d000071
:10031800b02d0000b02d0000b02d0000b02d000061
:10032800b02d0000b02d0000b02d0000b02d000051
:10033800b02d0000b02d0000b02d0000b02d000041
:10034800b02d0000b02d0000b02d0000b02d000031
:10035800b02d0000b02d0000b02d0000b02d000021
:10036800b02d0000b02d0000b02d0000b02d000011
:10037800b02d0000b02d0000b02d0000b02d000001
:10038800b02d0000b02d0000b02d0000b02d0000f1
:10039800b02d0000b02d0000b02d0000b02d0000e1
:1003a800b02d0000b02d0000b02d0000b02d0000d1
:1003b800b02d0000b02d0000b02d0000b02d0000c1
:1003c800b02d0000b02d0000b02d0000b02d0000b1
:1003d800b02d0000b02d0000b02d0000b02d0000a1
:1003e800b02d0000b02d0000b02d0000b02d000091
:0803f800b02d0000b02d000043
:020000040000fa
:10040000efcb21000e7f22000e01880000000000cb
:10041000000020000000e000020032000001200087
:1004200020028800140007007f0007000000e000a1
:1004300003003a0020c32000010020000200370022
:100440000000200001002000810f70000100320038
:1004500014000700000020000000e000020032004d
:100460000000020000000000662d020000000000f5
:100470000040da000000fe004440a900a004200073
:100480000000e0000300320000002000a00188000e
:100490004440a800000006008a1f78008b1f7800e7
:1004a0000000060091018800800478000000eb0045
:1004b0001a003700e284440032a0b4009905ba0063
:1004c000e284440032a0b4009906ba00e2844400f9
:1004d00032a0b4000006eb00476fde00fd07b2005b
:1004e000636ce10003003a00ebff07000000eb0043
:1004f0000a003700606ce10004003a00005deb0088
:100500008b05e900fdff3e00040037006168e10053
:10051000010032000086eb000b00070019c7ba008b
:100520001905ba000e04e00003003a000a00e000da
:10053000e0ff3a0000000600fe07b2009e018800be
:100540008a047800f5ff3700395dba008b05e900b1
:100550000c003200295dba008b05e900080032006a
:100560000c00e00003003a00e284440032a0b40032
:10057000f5ff370019ddba008b05e900faff3a00f4
:100580008904e800e184440032a0b40000000600c1
:10059000042c040000000000aa2d0400000000004c
:1005a000902d04000000000099a0a90001e6a90018
:1005b00089a0a900000006000e26ef00e7026200f5
:1005c00099a0a900f6f82f0089a0a900c42add008f
:1005d000a70b2000970b63006802620000308800c0
:1005e0004322de0011308800610262006230880020
:1005f00006007800233088004d22dd00ba00b600e6
:1006000000807200d0058800f0ff2d009800b60031
:1006100000007200c004880001e6a8000000060087
:10062000203088000000060000000500889fbe0002
:100630008a9fbe0030044200b0844a0030054b005f
:1006400090854b006000b1000898be000a90be0083
:100650000440e10005c8e10006d0e10007d8e10050
:1006600002003100680040001008e8004f05be009d
:100670004f04be0000000600889fbe008a9fbe0097
:100680003004be002005be000418540005985c002c
:1006900006185d0007985d00110020000440e1008d
:1006a00005c8e10006d0e10007d8e10001003900eb
:1006b0008000eb00108810004f05be004f04be0004
:1006c000000006001200fa00889fbe008a9fbe004c
:1006d0008c9fbe00e0b79f00f1b79f0082bf9f00d4
:1006e00093bf9f000605be000404be000000eb009f
:1006f000d0b79f00c0b79f00b0b79f00a0b79f00c2
:1007000090b79f000006eb005fb19700cfb0970055
:10071000820141003fb097000200e00004003d006c
:10072000370007007e805700c0ff07000300370036
:10073000330007007e805700cfff0700dfb6970029
:100740000d00e0000c0035006fb29700ffb297007b
:100750000fbb97009fbb97001000200001002000f6
:100760006011b800000272008182720002037300ff
:10077000838373001b0007000c06e80001042000bf
:10078000810f5600e0ff3a000d00e00004003d003c
:100790000802be000a03be007e805700a3ff0700c8
:1007a0005fa897000000e00005003a001fb2970024
:1007b000afb297003fb39700cfb39700090007008f
:1007c0006fb09700ffb097000fb997009fb99700df
:1007d0004f06be004f05be004f04be000080fa0069
:1007e000000006000100070000000600a4b79f00fb
:1007f000b5b79f00c6b79f00d7b79f00000006009f
:100800004f09de0082817100b3b79f004f01de0007
:100810008180400082807000a1b79f008fb0970058
:100820004f09de00000040000200700090b79f00fa
:100830007fa897004f01de00818040008280700019
:1008400081b79f000d0007004f3ade000000400016
:1008500004007000f0af9f0008000700040242008f
:1008600085824a0006034b0087834b00dfff0700a9
:100870000802be000a03be00000006002fb2970067
:10088000bfb297004fb39700dfb397000000060098
:10089000881f780018002000881f780089ff070053
:1008a0008f87e9004f04780000000600801feb00ee
:1008b00084ff07008f87e90000000600889fbe00c4
:1008c0008a9fbe00e00f5000e08f5800e00f5900f3
:1008d000e08f59000c003d006044b8006055b8003e
:1008e0000000540081805c0002015d0083815d0096
:1008f000180020001500070008003d001800070040
:100900000004eb00050037000004eb000f000700b7
:1009100002003d001200070018002000dcff070065
:100920000800e000060032006022b8006033b80022
:100930000000520081805a0002015b0083815b004d
:100940004f05be004f04be0000000600e00f52003d
:10095000e08f5a00e00f5b00e08f5b0000000600b4
:100960006044b8006055b8000402540085825c0001
:1009700006035d0087835d0000000600889fbe00bf
:100980008a9fbe008c1f7800e00f5000e08f580057
:10099000e00f5900e08f59000d003d006044b800a1
:1009a0006055b8000000540081805c0002015d00c9
:1009b00083815d001c0020000820e10009a8e100ff
:1009c0000ab0e1000bb8e1000d003d00080037005f
:1009d0000006eb00e00f5200e08f5a00e00f5b00d2
:1009e000e08f5b0006003d006044b8006055b80031
:1009f0000402540085825c0006035d0087835d006d
:100a0000aaff07000c00e000060032006022b800d8
:100a10006033b8000000520081805a0002015b0080
:100a200083815b004f0678004f05be004f04be0077
:100a300000000600e68747008e1f7800d0bf9f00a9
:100a4000e1bf9f000e0037005fba970014407800a6
:100a5000efb99700934078000201e900814f500000
:100a6000040032000080fb008180fb000100500088
:100a70000600370066875700041fe800030fe800f0
:100a80000200e000f0ff3a000000eb004f077800a2
:100a90006f00b100000006008001780002003700fe
:100aa000b15978000201e9000200e000fcff3a00c1
:100ab00000000600800178000200370081597800ac
:100ac0000201e9000200e000fcff3a00000006001d
:020000040000fa
:100ad00011110000222200003333000044440000c2
:100ae0005555000066660000777700008888000092
:100af00099990000aaaa0000bbbb0000cccc000062
:100b0000dddd0000eeee0000cecd0000acab00005d
:100b1000494400004c45000000a50000a5a50000c8
:100b2000a5a50000a5a50000a5a50000a5a500009d
:100b3000a5a50000a5a50000a5a50000a5a500008d
:100b4000a500000054610000736b0000203100001c
:100b50000000000054610000736b000020320000b0
:040b60000000000091
:020000040000fa
:100b64001200fa0050079800610798007207980075
:100b7400030f98000000eb00000f7800de009000e7
:100b840011079800010037000000000087120700d9
:100b94001e009000600890000000e0003500320064
:100ba4001e009000b000900021079800ee00900015
:100bb4001e0090001c0e07000e0890000000e000cc
:100bc4001a003a001e009000600890008000e900be
:100bd4001e009000610898001e009000100078002c
:100be4000000e00004003a001113070080007800c0
:100bf4001e009000110098001e009000400090001c
:100c04000000e000180032001e0090006800400060
:100c1400800a0700e10f500013003a003821020057
:100c240000000000000000000f0037001e009000cc
:100c3400ae009000310098001e0090001008900053
:100c44000000e000080032001e0090007200400026
:100c5400700a07000000e00003003200382102009f
:100c64000000000000000000341207001000200003
:100c7400460037007e0090000000e00003003a00c8
:100c84002e1207000000eb00400037001e00780021
:100c94000000e00004003a00660047000413070067
:100ca40010002000000f7800241207006f130700c3
:100cb4003e1207001e00900010109000e10f40004b
:100cc40003003a001e0090008000eb001110980011
:100cd4001e00900020109000e10f400003003a0035
:100ce4001e0090008000eb002110980013120700f2
:100cf400ee004700660047007d0a07000000e000a0
:100d04001e003a001e009000be1107000000e00023
:100d1400160032001e009000100078000000e00071
:100d240005003a00211207001e00900010009000f8
:100d34004e09070001120700fe0090001e009000fb
:100d4400720040007d0f07001e009000c0090700dc
:100d5400470607000000e0008bff3a00382102003c
:100d6400000000000000000088ff37001e00900013
:100d7400b70907003e06070084ff37001e009000f5
:100d8400b30907003a0607000000eb000080fa00f0
:040d94000000060055
:020000040000fa
:100d98001400fa004007980052079800630798006b
:100da80071079800040f9800150f98001000200094
:100db800000f7800ce009000110798000000eb00ab
:100dc800200798000e0890000000e000050032009f
:100dd8001e009000b0109000201090000e099000a6
:100de8000089be001e009000401190003207980054
:100df8001e00900021002000411098007e00900005
:100e0800e20f500017003200e20f500005003e00cc
:100e18000000e0002e003200e10f50000600320012
:100e28002c003700e30f500017003200e40f500089
:100e38001b003200270037001e0090002011900090
:100e4800b01190005e009000ee009000000071006c
:100e5800818071001e0190002011980031119800c6
:100e68001c0037001e009000b01090002010900069
:100e780061004000e08048001e01900020119800a9
:100e880031119800130037001e0090005e01900099
:100e9800ee01900022109800331098000d003700e2
:100ea8003e009000e20f5000060032001e00900045
:100eb8005e019000ee019000221098003310980017
:100ec800040037000000eb00000f78000100370035
:100ed800000000003e009000e10f50002a003a0098
:100ee800304180000000e00016003a001e0090002b
:100ef8000080e800040d07001e009000b008900074
:100f0800c0408000808f5000030036001e00900013
:100f180030089000c04088001e0090000081e80062
:100f28001e009000300890006a00b9008000780028
:100f380060c321000080400082007800000e070096
:100f4800050037001e0090006c004000800078000b
:100f580060c82100fa0d07001e009000b00890003c
:100f68007040800030089000808f500006003600e6
:100f78001e0890000000e000030032001e089000e8
:100f880011002000010878001e0078000080fa0097
:040f9800000006004f
:020000040000fa
:100f9c001000fa0030079800420798005307980099
:100fac00610798007407980010002000000f78006b
:100fbc00be009000110798007a1107007e00900087
:100fcc000000e000050032001e009000b010900000
:100fdc00201090007e0190000089be001e00900041
:100fec0040119000220798001e0090002100200064
:100ffc00411098006e009000e20f50001700320074
:10100c00e20f500005003e000000e0002e00320010
:10101c00e10f5000060032002c003700e30f5000a7
:10102c0017003200e40f50001b003200270037007d
:10103c001e00900020119000b01190004e00900006
:10104c00de00900000007100818071001e01900094
:10105c0020119800311198001c0037001e009000e0
:10106c00b01090002010900061004000e08048001b
:10107c001e019000201198003111980013003700c8
:10108c001e0090004e019000de019000221098008e
:10109c00331098000d0037002e009000e20f500026
:1010ac00060032001e0090004e019000de01900000
:1010bc002210980033109800040037000000eb0059
:1010cc00000f780001003700000000002e00900097
:1010dc00e10f50001e003a001e0090000080e80056
:1010ec00880c07001e009000b0089000c0408000e3
:1010fc00808f5000030036001e00900030089000d6
:10110c00c04088001e0090000081e8001e00900086
:10111c00300890006a00b9008000780060c321009c
:10112c000080400082007800840d07001e009000b3
:10113c00b00890007040800030089000808f500004
:10114c0003003600382102000000000000000000ff
:10115c00f81007001e0078000080fa00000006005e
:020000040000fa
:10116c001600fa00300798004107980052079800c3
:10117c006307980074079800050f9800160f9800e5
:10118c00270f98009e0890005e0090000c0c070042
:10119c00100798001e0090000000e0004f00320085
:1011ac001e009000c0089000210798001e009000bf
:1011bc00c00890005e0090000000e90000004000b4
:1011cc00808040001e009000710898005e02900024
:1011dc00ae0990007e019000ce0090001e009000a1
:1011ec00980607006e019000be0090002e00900043
:1011fc0005060700800078001e00900001087800aa
:10120c000e0890000000e000030032000e08900071
:10121c009e00900001087800e2100700a0408000ba
:10122c000000e800a0408800704080000000e00052
:10123c0007003a009e00900071408800a04080009a
:10124c00e10f50000c003a00930d07000a00370024
:10125c00d04080000000e00007003a0070408000a1
:10126c00b00890007e009000808f500002003e007d
:10127c009e00900071408800104180000000e80042
:10128c00104188001e009000b0089000c040800003
:10129c00808f5000030036001e0090003008900034
:1012ac00c04088001e0090000081e8001e009000e5
:1012bc00300890006a00b9008000780060c32100fb
:1012cc0000804000820078001c0d070010002000f8
:1012dc00000f780097100700020037000080eb0029
:1012ec00000f78001e007800e10f50000b003a0050
:1012fc00d04080000000e000080032007040800008
:10130c00b00890007e009000808f500003003100e8
:10131c003821020000000000000000001e007800d0
:08132c000080fa000000060039
:020000040000fa
:101334001200fa005007980061079800720798009d
:10134400030f98000000eb00000f7800de0090000f
:1013540011079800010037000000000093100700f7
:101364001e009000e00890001e009000700890009d
:10137400808f5000030039000e089000e20f5000e7
:101384001b003a000e099000ee0090001e00900031
:101394004d030700200798001e00900010089000dd
:1013a4000000e000090032001e00900072004000be
:1013b40098080700e10f50000a003a0038210200a3
:1013c4000000000000000000060037002e0090001e
:1013d4000000e00003003200382102000000000099
:1013e4000000000055100700100020003d003700e9
:1013f4007e0090000000e00003003a004f10070058
:101404000000eb00370037001e0078000000e00009
:1014140004003a0066004700251107001000200070
:10142400000f780045100700901107005f100700b7
:101434001e00900010109000e10f400003003a00dd
:101444001e0090008000eb00111098001e00900018
:1014540020109000e10f400003003a001e009000ad
:101464008000eb002110980034100700ee004700c4
:10147400660047009e0807000000e00015003a00df
:101484001e009000980f07000000e0000d003200dd
:10149400fe0090001e00900068004000a70d0700a9
:1014a4001e009000ea070700710407000000e00036
:1014b400a9ff3a00382102000000000000000000eb
:1014c400a6ff37001e009000e1070700680407002c
:1014d400a2ff37001e009000dd0707006404070028
:0c14e4000000eb000080fa000000060091
:020000040000fa
:1014f0000a00fa000000eb00000f78003041800085
:101500000000e0005e003a00b04080000000e8000b
:10151000b0408800b1408000110798001e00900084
:101520000000e0000a003a00814080002107980096
:101530009040800080408800ae009000914088007c
:10154000004180000000e800004188009d0f070076
:10155000204180009e009000808f50003c003900a8
:10156000010037000000000080408000100078007b
:101570000000e00003003a000080eb0020418800fa
:101580003300370080408000300090003000900031
:10159000300798003e0090009000900041079800ae
:1015a0009e0090004e009000808f5000030031009c
:1015b000ce00900021418800250037003e009000b9
:1015c0000080e800520b07003e00900020089000c9
:1015d0000000e000030032003e0090006c0040007c
:1015e0004b0b07003e009000b0089000c040800008
:1015f000808f5000030036003e00900030089000bd
:10160000c04088003e0090000081e8003e0090004d
:10161000300890006a00b9008000780060c32100a3
:101620000080400082007800470c07003e009000d8
:10163000b00890007040800030089000808f50000b
:10164000c8ff390010002000000f7800c6ff3700e7
:1016500070408000300890006a00b9008000780077
:1016600060c321000080400010007800e10f5000ae
:101670000600360010002000000f7800030037003d
:10168000e04080000000e800e0408800f04080007a
:101690000000e0000200320010002000000f78007f
:0c16a0001e0078000080fa000000060028
:020000040000fa
:1016ac001800fa0070079800010f9800120f9800ac
:1016bc00230f9800340f9800fe009000210798002b
:1016cc000000eb00100798000000eb0030079800ba
:1016dc00e41007002e00900090007800410798005d
:1016ec002e0990008e0890004e009000be0c070052
:1016fc00500798005e0090000000e0000f003200e0
:10170c00ce009000010f78000000eb00300f980025
:10171c001e0890000000e000230032002e00900014
:10172c00900078000e0890000080ea008080600035
:10173c002e009000010878001b0037003e08900036
:10174c000000e00003003a00ce009000010f78008a
:10175c00150037001e0890000000e0000300320066
:10176c001e0090000080a000100798002e0890002a
:10177c000000e000030032001e00900000a0a0005a
:10178c00100798008e0890001e00900081007000d9
:10179c002e0090000080e8003e099000a70b070087
:1017ac000000eb00000f7800af0307006007980003
:1017bc003e0890000000e000240032006e00900013
:1017cc000000e00003003a00382102000000000095
:1017dc0000000000cd0f0700000f78000020200053
:1017ec001e0060000000e00016003a006d0f0700bc
:1017fc002e009000100f78002e0990008e0890009b
:10180c001e007800780c07000000e0000a0032008f
:10181c001e0890000000e000070032002e0090002f
:10182c00900078000e0890000080ea008080600034
:10183c002e009000010878003e0f07000000eb001e
:10184c0030079800f00f20001e0f60001e0078007b
:08185c000080fa000000060004
:020000040000fa
:101864003608000000140000000000000808000012
:1018740002000000000000000a080000020000004e
:10188400000000000c08000002000000020000003c
:10189400ef0000000e08000002000000000000003d
:1018a400361c00002800000000000000721c00002c
:1018b4000a000000000000007c1c00000a00000078
:1018c40000000000100800000200000000000000fa
:1018d400120800000200000000000000861c000046
:1018e4000a00000000000000901c00000a00000034
:1018f40000000000140800000200000000000000c6
:101904001608000002000000000000001808000093
:1019140002000000000000001a080000020000009d
:10192400000000001c08000002000000000000008d
:101934001e08000002000000000000002008000053
:101944000200000000000000220800000200000065
:101954000000000024080000020000000000000055
:101964002608000002000000000000005e1c0000c9
:1019740014000000000000009a1c00000a0000008f
:1019840000000000a41c00000a0000000000000089
:101994002808000002000000000000002a080000df
:1019a4000200000000000000ae1c00000a0000005d
:1019b400000000002c0800000200000000000000ed
:1019c4002e080000020000000000000030080000a3
:1019d40002000000000000003208000002000000c5
:1019e40000000000340800000200000000000000b5
:1019f40000080000040000000000000004080000cb
:101a04000400000000000000b81c000006000000f4
:081a14000000000000000000ca
:020000040000fa
:101a1c000a00fa0020079800310798004207980046
:101a2c00ae0090001107980011028000f0f12f0019
:101a3c00008060000050a000100288000000000030
:101a4c00000000001e009000600890000000e00004
:101a5c0016003a004e0090000000e0000c0032002e
:101a6c001e00900072004000800078004e00900034
:101a7c00480a070011028000f0f12f00008060007e
:101a8c001002880000000000c0ff2f004b00370040
:101a9c0011028000f0f12f0000806000100288001d
:101aac00000000000000eb00440037001102800031
:101abc00f0f12f0000806000100288000000000090
:101acc0011028000f0f12f00008060000050a00097
:101adc001002880000000000000000001e009000b2
:101aec00600890000000e0002c0032001e00900006
:101afc00b00090001e00900000109000808040000c
:101b0c001e009000310098001e009000b000900064
:101b1c001e00900010009000808f500004003900cf
:101b2c001e009000900078001e009000310098007c
:101b3c001e009000600890008000e9001e009000dc
:101b4c00610898001e009000801090001e0090000c
:101b5c003000900001017800800078003e00900079
:101b6c00cafb070010002000000f78001e00900038
:101b7c00400090000000e0000a0032001e009000bf
:101b8c00680040007c0b07000000e00005003200fc
:101b9c00b0ff2f00000f7800020037000000eb00b0
:101bac00000f780011028000f0f12f00008060001f
:101bbc0010028800000000001e0078000080fa006f
:041bcc00000006000f
:020000040000fa
:101bd0000c00fa0040079800510798000000eb0045
:101be000000f78005e009000e30f50000200360006
:101bf00030002000500798006d0e07004e00900046
:101c00000000e00002003a00704080000100370050
:101c10004e009000100798001e0090008010900069
:101c200021079800ae0090005e009000808f500069
:101c300051003200de0090002e009000808f500096
:101c40000c003600704080009e009000808f500095
:101c50000e00320070408000b00890005e009000de
:101c6000808f500009003e0010002000000f780017
:101c700006003700704080009e009000808f50006a
:101c800002003a0010002000000f78001e009000b3
:101c9000b0089000310798001e009000801090005e
:101ca0001e00900030089000808f500003003a0022
:101cb0001e009000de009000310898001e00900089
:101cc000de009000011098001e009000600090005f
:101cd0000000e000040035005e009000e400100009
:101ce0001e009000610098001e00900050019000be
:101cf0003e0090006a00b9008000780060c32100b7
:101d000000804000800f510015003a001e00900036
:101d10000080e8007e0907001e009000b0089000d7
:101d2000c0408000808f5000030036001e009000ed
:101d300030089000c04088001e0090000081e8003c
:101d40001e009000300890006a00b9008000780002
:101d500060c3210000804000820078007a0a0700fa
:101d60001e007800e10f500003003a003821020005
:101d70000000000000000000f10d07000080fa00e4
:041d80000000060059
:020000040000fa
:101d84001000fa00200798003107980042079800d5
:101d9400530798006407980075079800030e07001e
:101da4007040800040109000e20f5000310032007b
:101db4007440800024119000b41190002e00900013
:101dc400be0090000080ea008180ea008202780070
:101dd40003017800800178000100780083826200aa
:101de400000061008000eb00c000dd000000200066
:101df4000001be006128b8000001710081817100fa
:101e040022129800331298007040800011002000c4
:101e1400411098007e0090000000e00015003200a0
:101e2400704080000080e800380907007e009000c0
:101e3400e10f400006003a00704080000080e80096
:101e44008000780000c921003e0a07000600370020
:101e5400b14080007e009000008040001007980090
:101e64001e009000860b07003821020000000000cd
:101e740000000000b10d0700cc0d07006e009000bb
:101e84000000e0000500320070408000b0109000b7
:101e9400201090006e0190000089be007040800008
:101ea40040109000e10f500003003a000000eb00e6
:101eb400000f78001800370074408000241190004f
:101ec400b41190004e009000de0090000080ea0003
:101ed4008180ea00820278000301780080017800a2
:101ee4000100780083826200000061008000eb0042
:101ef400c000dd00000020000001be006128b80021
:101f0400000171008181710022129800331298003f
:101f140010002000000f7800704080008000eb006b
:101f240041109800850d07001e0078000080fa001b
:041f340000000600a3
:020000040000fa
:101f38001600fa00100f9800210f98000000eb001f
:101f4800100798009e089000310798000000eb00e9
:101f5800200798003e0090000080e80040079800a5
:101f68004e0090006400400050079800be0e070025
:101f78004e009000b0009000010f78003e009000e5
:101f8800900078002e089000810070003e009000bc
:101f9800010878003b0037001e0078009000900090
:101fa800610798001e00780090007800710798007b
:101fb8000000eb0020079800fe00900000f02f00c2
:101fc80000806000000f9800fe009000f00f2000d5
:101fd80000806000700798008e0890000040200084
:101fe800008060000000e00009003a003e00900018
:101ff800900078007e009000008060000000e00003
:102008000c0032001000200020079800090037005b
:102018003e009000900078007e0090008080600074
:102028007e009000808f500002003a0010002000cf
:10203800200798002e0090000000e0000f003200fa
:102048008e08900000102000008060000000e00072
:10205800040032009e0090007e0090000100700095
:10206800100798003e009000100078000090a00033
:10207800800078001e0078003c070700ee00900002
:10208800010f78005e0090009e007800808f50005d
:10209800c1ff3a003e009000900078001e009000ba
:1020a8000080ea00808060003e009000010878000f
:1020b8006e0107003e009000100078000080fa00d2
:0420c800000006000e
:020000040000fa
:1020cc000800fa00100798002107980032079800c2
:1020dc000000eb00000f78001e0090000010900034
:1020ec000000e0000c003a001e0090001000780088
:1020fc000000e0004d003a001e009000100090001f
:10210c0096040700000f78001e0090008000eb0082
:10211c0011009800450037003e0090000000e000e0
:10212c0019003a001e009000801090001e009000d4
:10213c002000900001017800ae00900053fa0700d7
:10214c001e009000a00090001e0090000010900057
:10215c00808040001e009000210098001e0090001e
:10216c00a00090001e00900010009000808f500086
:10217c002e0039001e009000900078001e00900088
:10218c0021009800290037001e009000801090005c
:10219c001e0090003000900001017800ae0090000d
:1021ac003afa07001e009000b00090001e0090004c
:1021bc00001090000000ea00808040001e0090009b
:1021cc00310098001e009000b00090001e0090009e
:1021dc0010007800808f5000080031001e00900025
:1021ec00900090001e009000001090000000ea008b
:1021fc00808040001e009000310098003e0090004e
:10220c00e20f500009003a001e0090006008900098
:10221c000000e000050032001e00900060089000f5
:10222c008000e9001e009000610898001e009000dc
:10223c00600890008000e8001e0090006108980083
:0c224c001e0078000080fa000000060070
:020000040000fa
:102258001200fa005007980061079800720798006a
:10226800030f9800de009000110798000000eb00b3
:1022780020079800fc0d07001e00900090007800d1
:1022880031079800ee0090005e00900028ff0700dc
:10229800be0090006e009000810070007e009000eb
:1022a800808060007e009000808f50000d003a0012
:1022b800be0090006e009000008f70001e0090001d
:1022c800900078007e0090000080ea008080600026
:1022d8001e009000010878000000eb00000f980035
:1022e8000f0037000e0890000000e0000a003200de
:1022f800fe00900000502000810070001e00900039
:102308000080e8000e099000cd0807000000eb00ef
:10231800000f7800020037001e009000100f7800b0
:10232800d2000700400798000e0890000000e00067
:10233800200032004e0090000000e00003003a0048
:10234800382102000000000000000000f00c070027
:10235800000f7800002020001e0060000000e00050
:1023680012003a00900c07001e009000100f780031
:102378007e0090009e0060007e009000808f5000dc
:1023880007003a001e009000900078007e00900040
:102398000080ea00808060001e009000010878003c
:1023a800650c07001000200020079800f00f20009f
:1023b8001e0f60001e0078000080fa000000060072
:020000040000fa
:1023c8000400fa00830d07009141800001005000cd
:1023d800a041880049003700804180000000e800e3
:1023e80080418800a04180000000e900a0418800e9
:1023f800804180000000e00039003a00414180003f
:10240800010f780050418000404188009e0078000c
:10241800514188003300370040418000300090006f
:1024280030009000100798001e0090009000900067
:1024380080418000808f50002f003e0011028000f4
:10244800f0f12f00008060000050a000100288000a
:1024580000000000000000001e0090000080e8005e
:10246800a90707001e009000200890000000e00067
:10247800030032001e0090006c004000a207070015
:1024880011028000f0f12f00008060001002880027
:10249800000000001e009000b0089000704180000d
:1024a800808f5000030036001e0090003008900016
:1024b800704188001e0090000081e8001e00900016
:1024c800300890006a00b90080007800e0c521005b
:1024d800008040008200780099080700010037005a
:1024e8000000000040418000100078000000e0007b
:1024f800c9ff3a000100370000000000a041800039
:102508000000e000b4ff3a0080418000904188005c
:082518000080fa00000006003b
:020000040000fa
:102520000a00fa0020079800310798004207980037
:10253000ae0090001107980011028000f0f12f000a
:10254000008060000050a000100288000000000021
:10255000000000001e009000640b07000000e00077
:10256000160032004e0090000000e0000c00320027
:102570001e00900068004000800078004e0090002f
:102580008707070011028000f0f12f000080600033
:102590001002880000000000c0ff2f003300370049
:1025a00011028000f0f12f0000806000100288000e
:1025b000000000000000eb002c003700110280003a
:1025c000f0f12f0000806000100288000000000081
:1025d00011028000f0f12f00008060000050a00088
:1025e0001002880000000000000000001e009000a3
:1025f000e00890001e00900070089000808f50004e
:10260000120031000001eb00be0090001e0090009f
:10261000aefe070010002000000f78001e009000a2
:10262000100890000000e0000a0032001e00900038
:1026300072004000d30807000000e00005003200ef
:10264000b0ff2f00000f7800020037000000eb0001
:10265000000f780011028000f0f12f000080600070
:1026600010028800000000001e0078000080fa00c0
:042670000000060060
:020000040000fa
:102674000400fa000000eb00000f7800cb0b070009
:10268400304180000000e900304188003041800082
:102694000000e00041003a00a04080000000e0009b
:1026a4003e0032002300370060e4800030009000d8
:1026b400100798001e0090006c00400013070700ec
:1026c4001e0090000080e800100707001e00900024
:1026d400b0089000c0408000808f50000300360096
:1026e4001e00900030089000c04088001e0090003a
:1026f4000081e8001e009000300890006a00b900d4
:102704008000780060c321000080400082007800cf
:102714000c0807001e009000b00890007040800074
:1027240030089000808f5000020039001000200013
:10273400f040880030e480000000e000daff3a0056
:10274400e04080000000e0000c0032000800370088
:1027540066fb07000000e0000200320010002000c9
:10276400f0408800e04080000000e900e04088007c
:10277400e04080000000e000f5ff3a00f0408000f7
:10278400e10f500005003a0010002000000f78000f
:10279400382102000000000000000000670b070061
:0c27a4001e0078000080fa000000060013
:020000040000fa
:1027b0000000fa00540a070000cc25005101200057
:1027c00000408800114088000040800011408000d7
:1027d000000078005f0c0700406a20000100200024
:1027e00000408800114088008003200040308800ad
:1027f000004080001140800000007800550c070068
:1028000000cc2500510120000040880011408800c4
:102810000040800011408000000078004d0c07004f
:10282000406a20000100200000408800114088001c
:10283000c00020004030880000408000114080002f
:1028400000007800430c070000cc25005101200057
:102850000040880011408800004080001140800046
:10286000000078003b0c0700007d200001002000e4
:10287000004088001140880010002000403088008f
:10288000004080001140800000007800310c0700fb
:1028900000cc250051012000004088001140880034
:1028a000004080001140800000007800290c0700e3
:1028b000007d2000010020000040880011408800b9
:1028c00060002000403088000040800011408000ff
:1028d000000078001f0c0700f4090700ae0907008c
:0828e0000080fa000000060070
:020000040000fa
:1028e8000a00fa002007980031079800420798006c
:1028f800c001200008060700100798001e0090007d
:102908000000e0003c003200604180000000e00070
:1029180003003a009e00900061418800f10807001a
:102928003e009000e10f5000020036001000200029
:10293800300798001e0090008000eb0051089800b6
:102948001e009000be009000310898001e00900004
:10295800ce009000410898001e009000ae00900044
:10296800010878001e0090000080e800310c070084
:102978001e0090006c0040002e0c07001e00900006
:102988009e009000410098001e0090009e0090005c
:10299800110898003e009000e20010001e00900010
:1029a800610098001e009000b008900070418000ff
:1029b800808f5000030036001e0090003008900001
:1029c800704188001e0090000081e8001e00900001
:1029d800300890006a00b90080007800e0c5210046
:1029e8000080400082007800550707001000200092
:1029f800000f7800020037000080eb00000f78001d
:0c2a08001e0078000080fa0000000600ac
:020000040000fa
:102a14002a00fa00201798003117980042179800ee
:102a2400e4004700825628000f000900b21878001d
:102a3400be109000110798002e1090001e01900007
:102a4400020878002e1090000080e80020179800fb
:102a54002e1090008000eb00010878002e109000ea
:102a64000080e800201798002e1090008000eb00f2
:102a7400010878002e1090000080e80020179800cc
:102a8400ce1090002e109000010878002e109000b7
:102a94000080e800201798000000eb00000f780089
:102aa4000a0037001e0078000000400000004700c4
:102ab400a00090002e109000010878002e109000c5
:102ac4000080e800201798001e0fe8001e00780020
:102ad400ef0f5000f3ff3600210280002e1090000b
:102ae400010878002e1090000080e800201798005c
:102af40034c0bf008080fb002e10900001087800d5
:102b04002e1090000080e800201798002e109000ee
:102b14008000eb00010878002e1090000080e8008f
:102b2400201798002e1090000080fa000000060084
:020000040000fa
:102b34000a00fa0030079800410798009b0a070032
:102b440070408000b010900020109000e00f500002
:102b5400e08f58001a003a007040800011002000f5
:102b6400411098004e0090000000e0001400320074
:102b7400704080000080e800e40507004e009000eb
:102b8400e10f400006003a00704080000080e80039
:102b94008000780000c92100ea060700050037001c
:102ba400b14080004e009000008f40001e0078006d
:102bb4003308070038210200000000000000000074
:102bc4005e0a0700790a0700704080002011900017
:102bd400b011900012079800230798001e0090007f
:102be400ae009000e00f5000e08f58000f0032005c
:102bf4003e0090000000e0000500320072408000ba
:102c04006000b800201198003111980007003700c7
:102c14007240800022109000b210900061005000b9
:102c2400e080580020119800311198007040800015
:102c34008000eb0041109800400a07001e0090003d
:0c2c4400ae0090000080fa0000000600c6
:020000040000fa
:102c50000c00fa001007980021079800320798002e
:102c600043079800540798000000eb00000f78001d
:102c70000d0037002e0090001e00400090407800ac
:102c80001e0090001e0040007a00400001487800bd
:102c90002e0090001e004000104078000004e0006c
:102ca000050032001e0fe8001e007800e30f500000
:102cb000f0ff360001003700000000001e00900009
:102cc0008040eb00515898003e009000e30f500008
:102cd0000200360030002000300798001e009000ef
:102ce000be009000310898001e009000be009000c9
:102cf000011098001e0090008000eb001110980059
:102d00001e0090000080e8004c0b07001e009000a1
:102d10006c004000490b07001e0090009e009000d0
:102d2000410098003e009000e40010001e0090005a
:102d3000610098001e0090009e009000110898000d
:102d40001e0190006000b800201198003111980019
:102d50001e0090008000eb00411098000080fa00f7
:042d60000000060069
:020000040000fa
:102d64000600fa0010079800210798009e009000c2
:102d7400010f78000d0a07001e007800100178008a
:102d84001e007800f00890001e00780000109000eb
:102d94000088b90000007800800041001e0078001f
:102da400110098001e0078008000eb006108980074
:102db4001e007800900078001e0078002100980022
:102dc4001e007800100178001e0078007008900042
:102dd4008000e9001e007800001090000088b9000f
:102de40000007800800041001e0078003100980047
:102df4001e0078008080eb00111098001e007800ff
:102e04008080eb00211098002e0090000000e0006c
:102e14000d003a001e007800400090000000e00021
:102e24000f0032009e00780068804000f90107001e
:102e3400e10f50000a003a003821020000000000af
:102e440000000000060037009e0078006880400003
:102e5400bf0707009e00780072804000bc0707008f
:102e6400b6090700100020000080fa0000000600e8
:020000040000fa
:102e74000a00fa003007980041079800be0090004d
:102e8400010f78000000eb00100798001e00780086
:102e9400c0109000210798001e0078002100200037
:102ea400411098001e007800b0109000201090008f
:102eb40061004000e08048001e0178002011980065
:102ec400311198002e009000e10f500028003a00c4
:102ed400304180000000e00014003a001e80e80049
:102ee4000a0507001e007800b0089000c04080006a
:102ef400808f5000030036001e00780030089000d8
:102f0400c04088001e81e8001e0078003008900050
:102f14006a00b9008000780060c32100008040008e
:102f24008200780007060700050037009e0078003d
:102f34006c8040008000780060c821000106070012
:102f44001e007800b00890007040800030089000a7
:102f5400808f5000060036004e0090000000e00014
:102f6400030032004e009000110020000108780098
:082f74000080fa0000000600d5
:020000040000fa
:102f7c000a00fa00200798003107980042079800d1
:102f8c00ae009000110798001e00900060089000a1
:102f9c000000e000310032001e009000b0009000f4
:102fac001e00900000109000808040001e009000d9
:102fbc00310098001e009000b00090001e009000a0
:102fcc0010009000808f5000040039001e0090000b
:102fdc00900078001e009000310098001e009000b8
:102fec00600890008000e9001e00900061089800c5
:102ffc001e009000801090001e0090003000900089
:10300c0001017800800078003e0090009ff60700d8
:10301c004e009000100078000000e0000c003a0018
:10302c001e009000400090000000e00008003200fc
:10303c001e009000680040004f0607000000e000f2
:10304c00030032004e0090001100200001087800af
:10305c0010002000000f7800020037000000eb0089
:10306c00000f78001e0078000080fa0000000600b7
:020000040000fa
:10307c000400fa00304180000000e0000300320040
:10308c0010002000f0408800360037001e28ef00aa
:10309c007040800070089000000f78009e0078004f
:1030ac00748f500042012000d15828001e00780077
:1030bc005df607000000e000080032007040800060
:1030cc00fa004000704080008e0a070003003700b1
:1030dc00c04080000000e900c0408800c040800073
:1030ec006a00b9008000780060c3210000804000b5
:1030fc00100078000000e000f5ff3200c0408000b6
:10310c006a00b9008000780060c321000080400094
:10311c00100798001e009000100090009000900086
:10312c001e009000110098001e009000900090006e
:10313c001e00900064004000808f500005003a0093
:10314c001e00900010009000900090001e00900057
:10315c00110098001e0090001000900030009000ac
:0c316c00704088000080fa00000006009f
:020000040000fa
:103178000c00fa0040079800510798000000eb0087
:10318800000f7800380a0700b14080001107980046
:103198004e009000900078005e0090000080400093
:1031a800200798004e009000900078001e009000c4
:1031b800808f50000c0036004e0090009000780080
:1031c8002e009000808f500012003600ae00900054
:1031d8001e009000808f50000e0036001000200066
:1031e800000f78000b0037004e0090009000780028
:1031f8002e009000808f500004003e00ae0090002a
:103208001e009000808f5000020036001000200041
:10321800000f78004e009000ae0090000108780082
:103228001e0078000000e0000500320070408000b9
:103238000080e800340407002e0090008f06070085
:103248000afd0700300798003e0090000000e000eb
:1032580003003a00382102000000000000000000ce
:083268000080fa0000000600de
:020000040000fa
:103270000400fa00100798009e009000010f7800eb
:103280001e0090000000e000350032001e007800b3
:10329000b00890007040800030089000808f50008f
:1032a0002f0031001e007800600090000000e00058
:1032b000050035007040800030089000e4001000e8
:1032c0001e007800610098001e00780050019000f8
:1032d0001e007800300890006a00b9008000780075
:1032e00060c3210000804000800f510018003a00a8
:1032f0001e80e8000604070070408000b0089000bf
:103300001e007800310898001e007800b008900078
:10331000c0408000808f5000030036001e007800ff
:1033200030089000c04088001e81e8001e00780030
:10333000300890006a00b9008000780060c3210066
:103340000080400082007800ff040700040037007e
:1033500070408000b00890001e007800310898008e
:083360000080fa0000000600e5
:020000040000fa
:103368000600fa0020079800ae00900011079800a8
:103378000000eb00000f78002e0090000000e00035
:103388002f0032001e009000101090008000e9000d
:103398001e009000111098001e009000b0089000c8
:1033a8001e00900000109000808f50002400320012
:1033b8001e009000101090000000e00020003a006d
:1033c8001e0090000080e800cf0307001e00900058
:1033d800801090001e009000310898001e00900098
:1033e80030089000e40010001e0090006100980072
:1033f8001e009000b0089000c0408000808f5000f0
:10340800030036001e00900030089000c04088007d
:103418001e0090000081e8001e0090003008900017
:103428006a00b9008000780060c321000080400075
:1034380082007800c204070010002000000f780006
:0c3448001e0078000080fa000000060062
:020000040000fa
:103454000200fa00000f7800540807000f0037003c
:103464001e007800100890000000e00010003200f8
:103474009e00780072804000660007000000e000b3
:10348400010032008b0907001e0078002010900014
:103494008000e9001e007800211098001e007800ca
:1034a400201090000000e000edff3c000100370018
:1034b400000000001e0078008080eb0021109800be
:1034c4001e080700390807000f0037001e007800a7
:1034d400400090000000e000100032009e007800e0
:1034e400688040004b0007000000e000010032004b
:1034f400700907001e007800101090008000e90099
:103504001e007800111098001e0078001010900022
:103514000000e000edff3c00010037000000000067
:103524001e0078008080eb0011109800030807004b
:083534000080fa00000006000f
:020000040000fa
:10353c000e00fa00300798004107980052079800d7
:10354c0063079800be009000110798000000eb0084
:10355c00200798001e009000e00890001e009000cc
:10356c0070089000808f5000030039006e009000ae
:10357c00e20f500020003a006e019000ce00900047
:10358c001e009000cefa07001e0090002010900044
:10359c00e10f400010003a001e009000100890004f
:1035ac000000e000110032001e009000720040008c
:1035bc00160007000000e0000c0032005e009000d6
:1035cc000000e000090032005e00900011002000b5
:1035dc0001087800050037001e00900020109000b4
:1035ec008000e8001e0090002110980010002000c0
:1035fc00000f7800020037000000eb00000f78008d
:0c360c001e0078000080fa00000006009c
:020000040000fa
:103618000600fa00200798002e0090003000900065
:1036280030009000100798001e0090006c004000c9
:1036380035030700304180000000e00016003a0022
:103648001e0090000080e8002f0307001e00900075
:10365800b0089000c0408000808f50000300360002
:103668001e00900030089000c04088001e009000a6
:103678000081e8001e009000300890006a00b90040
:103688008000780060c3210000804000820078003c
:103698002b040700050037001e0090006c00400056
:1036a8008000780060c82100250407001e009000f3
:1036b800b00890007040800030089000808f500063
:1036c8000500360010002000000f780010002000d0
:1036d800f0408800020037000000eb00000f78007f
:0c36e8001e0078000080fa0000000600c0
:020000040000fa
:1036f4000800fa002007980031079800ab0707007c
:10370400b1408000110798003e009000100078003e
:10371400e10f400003003a000000eb00000f7800c6
:10372400250037002e0090009000780000418000b2
:10373400808f5000080032002e009000900090000e
:103744001e009000808f500003003e0010002000f7
:10375400000f7800180037002e0090001000900031
:103764009e009000808050003e0090001000780081
:10377400808f50000e0031003e00900090007800d1
:103784002e009000100190001e00900000005100d7
:10379400808040003e009000010878002e009000d8
:1037a400430807000000eb00000f78000200370018
:1037b40010002000000f7800600707001e0078004a
:0837c4000080fa00000006007d
:020000040000fa
:1037cc000200fa0027020700fcfa07000600370087
:1037dc00704180000000e0002c003200704180003d
:1037ec000000e90070418800704180006a00b90057
:1037fc0080007800e0c521000080400010007800b7
:10380c000000e000f2ff3200704180006a00b90055
:10381c0080007800e0c52100008f40001e00780079
:10382c0010009000900090001e007800110098008d
:10383c001e007800900090001e017800640041008a
:10384c00808f500005003a001e0078001000900098
:10385c00900090001e007800110098001e00780067
:10386c0010009000300090006041880060418000a2
:10387c001001780060418000c00890006041800019
:10388c0002000100000000000100370000000000f1
:08389c000080fa0000000600a4
:020000040000fa
:1038a4000c00fa003007980041079800520798006e
:1038b400be009000110798000000eb00200798005c
:1038c4001e009000600890000000e0002400320018
:1038d400ce0090001e009000d30207001e0090004e
:1038e400600890008000e9001e00900061089800c4
:1038f4001e00900010109000e10f400010003a00ec
:103904001e009000400090000000e0001100320012
:103914001e009000680040003eff07000000e00029
:103924000c0032005e0090000000e000090032004c
:103934005e009000110020000108780005003700a7
:103944001e009000101090008000e8001e009000ff
:103954001110980010002000000f780002003700ba
:103964000000eb00000f78001e0078000080fa00d1
:043974000000060049
:020000040000fa
:103978000800fa00300798000000eb00000f7800fc
:10398800be009000110798000000eb002007980087
:103998001e00900006050700e10f500026003a00bf
:1039a800304180000000e0001e003a001e00900038
:1039b800b00890007040800030089000808f500060
:1039c8000200390010002000000f78001e0090004f
:1039d8000080e8004c0207001e009000b00890002c
:1039e800c0408000808f5000030036001e00900009
:1039f80030089000c04088001e0090000081e80058
:103a08001e009000300890006a00b900800078001d
:103a180060c321000080400082007800480307004e
:103a2800050037001e0090006c0040008000780000
:103a380060c82100420307001e0078000080fa00d9
:043a48000000060074
:020000040000fa
:103a4c000a00fa003007980041079800be00900069
:103a5c00110798000000eb00200798001e00900052
:103a6c00e00890001e00900070089000808f5000bd
:103a7c00210031001e009000600890008000e800da
:103a8c001e009000610898001e009000201090000d
:103a9c00e10f400010003a001e009000100890004a
:103aac000000e000110032001e0090007200400087
:103abc00d6fe07000000e0000c0032004e00900023
:103acc000000e000090032004e00900011002000c0
:103adc0001087800050037001e00900020109000af
:103aec008000e8001e0090002110980010002000bb
:103afc00000f7800020037000000eb00000f780088
:0c3b0c001e0078000080fa000000060097
:020000040000fa
:103b18000400fa0010079800a30607001e00900092
:103b28000000e00002003a00704080000100370009
:103b38001e009000000f78001e80e800f2010700c8
:103b48001e007800200890000000e000030032000a
:103b58009e0078006c804000eb0107001e80e800a2
:103b68008000780000c92100f502070072060700ee
:103b7800704080009e007800808f50000f003a004f
:103b8800d04080000000e00004003200382102002c
:103b980000000000000000000e00370081e48000f3
:103ba800a0408000808f500002003a000e28ef00ed
:103bb800080037002ffd070006003700d0408000be
:103bc8000000e0000300320077060700fb0507004d
:0c3bd800590607000080fa0000000600fb
:020000040000fa
:103be4000800fa0020079800310798003e00900072
:103bf40090007800110798001e009000e10f40002b
:103c040004003a002e009000c0009000010f7800dc
:103c14000d0037002e00900064004000000f780073
:103c2400030037001e00780090009000010f780018
:103c34001e00780010009000900078001e00900094
:103c4400808f5000f7ff36001e007800900090002f
:103c54003e009000110098003e009000100090007b
:103c6400be009000210098003e0090009e00780065
:103c7400210098001e007800be00900011009800fa
:103c84003e009000ae009000410098002e0090008d
:103c9400100078008000e8002e00900001087800f1
:083ca4000080fa000000060098
:020000040000fa
:103cac000c00fa003007980041079800224f98004a
:103cbc000000eb00100798004e0090000000e000a0
:103ccc0003003a000000eb00000f780005003700fd
:103cdc00be0090004e0090000088b90000007800f3
:103cec00000fe800610220001e804000090107005f
:103cfc00200798002e0090000000e0001700320012
:103d0c004e0090000000e00004003a00ae0090006d
:103d1c002e00900001087800050037002e0090005e
:103d2c0061022000808040002e0090000108780085
:103d3c002e009000be009000710898002e0090009c
:103d4c00ce00900001109800110020002e00900071
:103d5c0001fc0700ae009000110798001e009000b7
:083d6c000080fa0000000600cf
:020000040000fa
:103d74000800fa002007980031079800be00900060
:103d840000002800810070002e00900001087800d7
:103d94002e00900030009000100798002e00900034
:103da4005a0107001e0090000080e8005701070038
:103db4001e009000b0089000c0408000808f50002a
:103dc400030036001e00900030089000c0408800b8
:103dd4001e0090000081e8001e0090003008900052
:103de4006a00b9008000780060c3210000804000b0
:103df40082007800530207001e009000b008900073
:103e04007040800030089000808f5000050036001c
:103e140010002000000f780010002000f0408800ff
:103e2400020037000000eb00000f78001e0078004d
:083e34000080fa000000060006
:020000040000fa
:103e3c000400fa002047980060022000b50007003b
:103e4c00000f78001e0078000000e0002600320011
:103e5c001e0078008000eb00110098001e00780016
:103e6c008000eb00010878001e0078008000eb0059
:103e7c00210098001e0078008000eb0031009800b3
:103e8c001e0078008000eb00610898001e0078008e
:103e9c0011002000710898001e0078008000eb00d3
:103eac00011098001e0078008080eb001110980023
:103ebc001e0078008080eb00211098009e00780096
:103ecc0068804000a00307009e00780072804000cc
:103edc009d0307008001eb000001eb008000eb006c
:103eec001e00780010f507001e0078000080fa0014
:043efc0000000600bc
:020000040000fa
:103f00000400fa00100798009e009000010f78004e
:103f10001e0078000000e0002600320070408000a3
:103f20009e007800808f500022003200a00507001c
:103f30001e007800a0030700e10f50001c003a00ab
:103f40001e80e800f20007001e007800b008900014
:103f5000c0408000808f5000030036001e007800b3
:103f600030089000c04088001e81e8001e007800e4
:103f7000300890006a00b9008000780060c321001a
:103f80000080400082007800ef0107001e007800ea
:103f9000b00890007040800030089000808f500082
:103fa000030039003821020000000000000000007a
:0c3fb000630507000080fa000000060016
:020000040000fa
:103fbc000400fa009760a800000000009760a900b8
:103fcc0080cb2100a10880000108780020408000ef
:103fdc0031408000008fbe0080cb210010007800a3
:103fec00e10f400004003a001e00be0061005000ca
:103ffc00e0805800008fbe000e00780090407800e2
:10400c00a0cb2100014878000e0078000000e800e9
:10401c0090407800b0cb2100014878000e00780069
:10402c000080e80090407800c0cb21000148780067
:10403c000e0078006300400090407800d0cb210047
:10404c00014878003104800000802000008060006e
:10405c000000e000d7ff3a009760a8000080fa004b
:04406c00000006004a
:020000040000fa
:104070000200fa002500370011028000f0f12f0045
:10408000008060000050a0001002880000000000c6
:1040900000000000a0e5800030009000000f7800d4
:1040a0009e0078006c80400099000700110280009b
:1040b000f0f12f0000806000100288000000000076
:1040c0001e80e800920007001e007800b0089000f3
:1040d00070418000808f5000030036001e00780081
:1040e00030089000704188001e81e8001e007800b2
:1040f000300890006a00b90080007800e0c5210017
:1041000000804000820078008f01070070e5800089
:104110000000e000d8ff3a000080fa00000006002e
:020000040000fa
:104120000400fa00100798000000eb00000f780070
:104130001e00900061006000004078000004e00074
:10414000040032001e0090000000a1000080e80082
:104150001007980046060700504080000000e0006d
:1041600003003a00808320000000a1005040880036
:10417000414080001e00900080804000d03f210020
:10418000808f50000d003e00414080001e009000d6
:104190008080400040408000808f50000700360043
:1041a0005140800040408000008f4000414080002e
:1041b0001e00900000804000404088002df907005c
:0c41c0001e0078000080fa0000000600dd
:020000040000fa
:1041cc000600fa001007980021079800a0022000b2
:1041dc00d0ff0700000f78001e0078000000e00000
:1041ec00120032002e0090000000e00004003a00a3
:1041fc001e00900000004000c6ff070001003700c1
:10420c002e0090009e007800c00898001e007800d8
:10421c00400890000000e00004003a001e00780006
:10422c002c0607000000eb00000f78001e00780041
:10423c000000e000080032001e009000000040006a
:10424c00800078001e007800400890000101780082
:10425c00510a200014f207001e0078000080fa00ba
:04426c000000060048
:020000040000fa
:104270004200f800801f7800000220001002880031
:10428000811f7800829fbe00849fbe00869fbe0073
:10429000889fbe008a9fbe008c9fbe008e1f780044
:1042a0003600f8003200f8004400f8003400f8004e
:1042b00060408000801f7800704080000f08780008
:1042c0003e18020000000000704080009007780057
:1042d0004f007800604088003400f9004400f90085
:1042e0003200f9003600f9004f0778004f06be0093
:1042f0004f05be004f04be004f03be004f02be007c
:104300004f01be004f00be004200f9000000060051
:020000040000fa
:104310000400fa00100798001e0090004000900072
:10432000000f78001e009000100090009e0090008a
:10433000a1009000210098001e0090002000900035
:104340009e00900091009000110098001e007800df
:10435000900090001e009000808f500004003a00f2
:104360001e009000a00090001e0078001100980030
:104370001e0090008000eb00410098001e007800b5
:10438000100078008000e9001e0078000108780025
:104390001e007800100078000080fa00000006007f
:020000040000fa
:1043a0000600fa001007980021079800814180005c
:1043b0001e009000008f4000604180000080e800f7
:1043c000d3ff0700604180009e0078001100980034
:1043d000804180009e007800808f500005003100f1
:1043e000604180008080e80050418000fdfd0700b2
:1043f00004003700604180008080e8004041800078
:10440000f8fd07002e0090000000e00005003200db
:10441000604180006c004000800078002e00900019
:0c442000f0fd07000080fa00000006001c
:020000040000fa
:10442c000400fa00000f7800110798001e007800b5
:10443c00001090000000e000190032001e0078000f
:10444c00b00090001e0078000010900080804000aa
:10445c001e007800310098001e007800b00090001b
:10446c001e00780010009000808f5000040039006e
:10447c001e007800900078001e0078003100980033
:10448c001e007800801090001e0078003000900014
:10449c0001017800800078001e0090007bf107007d
:0844ac000080fa000000060088
:020000040000fa
:1044b4000400fa002047980000c3b3006403070017
:1044c40080c5b300620307002e4090000080fb000b
:1044d4004400de00004f78001e407800e94f500091
:1044e4000400360071c3b3001ec040005803070027
:1044f4000300370001c3b3001ec04000540307008b
:104504002e4090006f4f60001e407800e94f50002d
:104514000400360071c3b3001ec040004c03070002
:104524000300370001c3b3001ec040004803070066
:084534000080fa0000000600ff
:020000040000fa
:10453c000400fa002047980000c3b30042030700b0
:10454c0080c5b300400307002e4090000080fb00a4
:10455c004400de00004f78001e407800e94f500008
:10456c000400360071c3b3001ec0400036030700c0
:10457c000300370001c3b3001ec040003203070024
:10458c002e4090006f4f60001e407800e94f5000a5
:10459c000400360071c3b3001ec040002a0307009c
:1045ac000300370001c3b3001ec040002603070000
:0845bc000080fa000000060077
:020000040000fa
:1045c4000800fa00100798002107980032079800a5
:1045d4009e009000010f78001e007800e008900013
:1045e4001e00780070089000808f50001200310087
:1045f4000001eb00ae0090001e007800b2f6070048
:104604003e0090000000e0000b003a001e0078001d
:10461400100890000000e000070032009e007800bf
:1046240072804000d60007000000e0000200320063
:1046340010002000010037003e0090000080fa00c6
:04464400000006006c
:020000040000fa
:104648000800fa0010079800210798003207980020
:10465800704080002e0190000100280082807000c8
:1046680061009800704080006c0040008000780075
:104678001e00900032000700704080000080e800b3
:1046880021ff07003e009000e10f400006003a00bd
:10469800704080000080e8008000780000c9210098
:1046a8002700070005003700b14080003e00900059
:1046b800008f40001e007800700107000080fa009b
:0446c80000000600e8
:020000040000fa
:1046cc000400fa00100798000040eb00004f78003f
:1046dc0010c0b300104798004302070011003700c8
:1046ec001e009000104078009e0090008100e800b1
:1046fc0011079800d80007001e407800f34f5000b7
:10470c00070036001e409000e14f500004003a00b4
:10471c004c0207001e4090000040e8001047980033
:10472c001e4fe8001e009000104078000004e000ce
:0c473c00ebff3a000080fa0000000600cd
:020000040000fa
:104748000600fa0010079800210798001e00900044
:1047580090009000010f78002e0090009e007800d5
:10476800110098001e007800a00090002e00900014
:10477800210098001e00780020009000ae009000f4
:10478800110098001e007800ae00900021009800eb
:104798002e0090009e009000410098001e0090009e
:1047a800100078008000e8001e00900001087800e2
:0847b8000080fa000000060079
:020000040000fa
:1047c0000200fa008003eb000003eb008002eb0024
:1047d0000002eb008001eb00320720008158280026
:1047e00040c0220061f20700000f78001e00780030
:1047f000e10f50000d003a0011028000f0f12f008f
:10480000008060000050a00010028800000000003e
:10481000000000000080eb00204188001000200014
:10482000d04088001628ef00c40107000080fa007d
:04483000000006007e
:020000040000fa
:104834000c00fa004007980051079800ce00900041
:10484400110798000000eb00200798001e0090005c
:10485400600890000000e0000c0032001e00900090
:10486400b000900031079800de0090001e00900018
:10487400edfe07001e009000be009000310098007d
:1048840010002000000f7800020037000000eb0049
:10489400000f78001e0078000080fa000000060077
:020000040000fa
:1048a4000200fa000000eb00000f78000700370058
:1048b4001e0078006a00b9008000780060c32100ff
:1048c40000804000220107001e0fe8001e0078004f
:1048d400e30f5000f6ff360020c721001c0107003b
:1048e400c0c721001a01070060c821001801070091
:1048f40000c921001601070020c72100804088005c
:10490400c0c72100904088000080fa000000060023
:020000040000fa
:104914000600fa0020079800ae00900011079800e6
:104924001e0090000000e00002003a007040800089
:10493400010037001e009000100798001b030700b9
:104944001e00900040109000e20f500006003a0054
:104954001e0090008000eb00411098001000200021
:10496400000f7800020037000000eb00000f780011
:10497400f20207001e0078000080fa000000060022
:020000040000fa
:104984000600fa00200798002e00900030009000e6
:1049940030009000100798001e0090006c0040004a
:1049a4005afe07001e0090006c0040008000780052
:1049b400e0ca210063ff07001e009000b0089000c9
:1049c4006041800030089000808f5000030039005f
:1049d40010002000000f7800020037000000eb00f8
:1049e400000f78001e0078000080fa000000060026
:020000040000fa
:1049f4000800fa0010079800210798003207980071
:104a04000000eb00000f78003e0090000000e00082
:104a140008003a009e0090002e0090000080600084
:104a24000000e0000b00320010002000000f7800ae
:104a3400080037009e0090002e00900080806000e7
:104a44002e009000808f500002003a0010002000d9
:104a5400000f78001e0078000080fa0000000600b5
:020000040000fa
:104a64000200fa00004f7800406a20000100200094
:104a7400004088001140880010002000e7ee070085
:104a84001e00fb0040308800060037000040800014
:104a94001140800061005000e08058000040880010
:104aa400114088000040800011408000e00f500059
:104ab400e08f5800f5ff3a000000000000000000fd
:104ac40000000000000000000080fa000000060062
:020000040000fa
:104ad4000600fa00200798000000eb00000f7800a1
:104ae4002e0090000000e0000c003200df030700fd
:104af400b14080002e009000008040001007980014
:104b0400704080000080e80000fe07001e00900056
:104b14005b000700d6f60700000f78001e0078003f
:104b24000000e00003003a00382102000000000009
:0c4b3400000000000080fa0000000600f5
:020000040000fa
:104b40000600fa00100798002107980070408000c6
:104b50006c004000800078001e00900021fc0700df
:104b6000704080000080e800e9fd07002e00900002
:104b7000e10f400006003a00704080000080e8002d
:104b80008000780000c92100effe07000500370013
:104b9000b14080002e009000008f40001e00780081
:0c4ba000380007000080fa00000006004a
:020000040000fa
:104bac000400fa0020479800007d2000010020003e
:104bbc0000408800114088000000eb0095ee0700d3
:104bcc00ae40900000ccb30000cf70001e80fb0004
:104bdc004030880006003700004080001140800003
:104bec0061005000e08058000040880011408800af
:104bfc000040800011408000e00f5000e08f580012
:0c4c0c00f5ff3a000080fa0000000600ee
:020000040000fa
:104c18000400fa0020479800007d200001002000d1
:104c280000408800114088000000eb007aee070081
:104c3800ae40900000c8b30000cf70001e80fb009b
:104c48004030880006003700004080001140800096
:104c580061005000e0805800004088001140880042
:104c68000040800011408000e00f5000e08f5800a5
:0c4c7800f5ff3a000080fa000000060082
:020000040000fa
:104c84000200fa00000f7800704080009e00780057
:104c940011009800b04080009e007800808f500082
:104ca40005003100704080008080e8009040800062
:104cb400cbfb07000a003700704080008080e800ca
:104cc40080408000c6fb0700204180009e007800e1
:104cd400808f5000020031009e007800214188003e
:084ce4000080fa000000060048
:020000040000fa
:104cec000200fa000000eb00000f7800070037000c
:104cfc001e0078006a00b90080007800e0c5210031
:104d0c0000804000100007001e0fe8001e00780015
:104d1c00e10f5000f6ff3600a0c921000a00070081
:104d2c0040ca210008000700e0ca21000600070065
:104d3c00a0c921004041880040ca21005041880090
:084d4c000080fa0000000600df
:020000040000fa
:104d54000200fa00000f78009e0078006480400092
:104d6400800078001e007800110098001e00780072
:104d74008080eb00210098009e0078006480400051
:104d8400800078001e007800310098009e007800b2
:104d940064804000800078001e0078004100980084
:104da4001e0078008000eb00010878000080fa0003
:044db40000000600f5
:020000040000fa
:104db8000600fa00200798000000eb00000f7800ba
:104dc800ae009000110798001e009000d0009000df
:104dd80000c92100808f50000b003a001e0090008f
:104de800a008900060c82100808f500006003200a3
:104df8001e009000200890000000e00002003a0029
:104e080010002000000f78001e0078000080fa00d3
:044e18000000060090
:020000040000fa
:104e1c003600f800809fbe00829fbe00849fbe00bb
:104e2c00869fbe003400f80000002000a00188001e
:104e3c000000fa008460a900aaf107000000e0005d
:104e4c0003003200382102000000000000000000c6
:104e5c000080fa003400f9004f03be004f02be0080
:104e6c004f01be004f00be003600f90000400600a6
:020000040000fa
:104e7c000400fa004efc07000e00780091cb2100d4
:104e8c0091407800014878000e0078000000e8009e
:104e9c00a1cb210091407800014878000e007800e9
:104eac000080e800b1cb21009140780001487800e7
:104ebc000e00780063004000c1cb210091407800c7
:104ecc00014878001e00be000080fa0000000600b9
:020000040000fa
:104edc000400fa0036fc07000e007800a1cb21007c
:104eec0091407800014878000e0078000000e8003e
:104efc00b1cb210091407800014878000e00780079
:104f0c000080e800c1cb2100914078000148780076
:104f1c000e00780063004000d1cb21009140780056
:104f2c00014878001e00be000080fa000000060058
:020000040000fa
:104f3c000000fa009c000700704080009007780089
:104f4c004f007800604088003400f9004400f900fc
:104f5c003200f9003600f9004f0778004f06be000a
:104f6c004f05be004f04be004f03be004f02be00f3
:104f7c004f01be004f00be004200f90000000600c9
:0c4f8c00100020000080fa000000060069
:020000040000fa
:104f98000000fa00007d2000010020000040880089
:104fa800114088000000eb009bed07002000200066
:104fb8004030880006003700004080001140800023
:104fc80061005000e08058000040880011408800cf
:104fd8000040800011408000e00f5000e08f580032
:0c4fe800f5ff3a000080fa00000006000f
:020000040000fa
:104ff4000000fa00007d200001002000004088002d
:10500400114088000000eb0084ed07000008200038
:1050140040308800060037000040800011408000c6
:1050240061005000e0805800004088001140880072
:105034000040800011408000e00f5000e08f5800d5
:0c504400f5ff3a000080fa0000000600b2
:020000040000fa
:105050000000fa00007d20000100200000408800d0
:10506000114088000000eb006ded0700000c2000ef
:10507000403088000600370000408000114080006a
:1050800061005000e0805800004088001140880016
:105090000040800011408000e00f5000e08f580079
:0c50a000f5ff3a000080fa000000060056
:020000040000fa
:1050ac000000fa00007d2000010020000040880074
:1050bc00114088000000eb0056ed070010002000a6
:1050cc00403088000600370000408000114080000e
:1050dc0061005000e08058000040880011408800ba
:1050ec000040800011408000e00f5000e08f58001d
:0c50fc00f5ff3a000080fa0000000600fa
:020000040000fa
:105108000a00fa0030302800000f7800f03f200035
:105118001007980010002000200798000000eb00fe
:10512800300798000000eb00400798001ced0700ce
:105138004e0090000040780000427800be019000c8
:105148002e0190009e0090001e00780018ed0700c8
:085158000080fa0000000600cf
:020000040000fa
:105160000600fa0020079800ae009000010f7800ba
:105170001e80e800100798003d0207000400370079
:105180001e0090003000900001202000f9fa070076
:105190001e009000100078000000e000f8ff3a00c8
:1051a0001e0078004e02070032f507000080fa006a
:0451b00000000600f5
:020000040000fa
:1051b4000400fa00f07c200001002000008fbe00f3
:1051c4000421ef000021ef001e0078001008880081
:1051d40021058000f0ff28000080600000c0a000ce
:1051e400200588008460a9009460a8000481a800b8
:1051f40004a1a90005e1a8000080fa00000006004f
:020000040000fa
:105204000800fa002007980031079800ae009000cb
:10521400010f7800e50007001e0078009000780078
:10522400110798001e007800900078003e0090005e
:105234000080ea00808060001e0078000108780089
:10524400be0007001e0090000080fa000000060067
:020000040000fa
:105254000200fa00004f78000000000001178000ef
:1052640000002100008060000000e000fbff3a0025
:1052740000000000911180000020200000806000e8
:105284000000e000fbff3a001e00fb00a0118800b4
:0c5294001e00fb000080fa000000060075
:020000040000fa
:1052a0000400fa0010079800020037001e40780042
:1052b000e8ff07001e00900010407800004f7800c3
:1052c0001e80fb000000ea004f00de000040780076
:1052d0009e0090008100e800110798000004e000a3
:0c52e000f2ff3a000080fa000000060017
:020000040000fa
:1052ec000400fa0010079800ae0007001e009000a2
:1052fc00e00890001e00900070089000808f500015
:10530c0003003a0010002000000f78000200370064
:10531c000000eb00000f7800860007001e007800ec
:08532c000080fa0000000600f9
:020000040000fa
:105334000000fa00f1088000000320000100700062
:10534400f00888000080eb00d00888001421ef00ea
:1053540081058000f0ff28000080600000d0a000dc
:10536400800588008760a9009760a8001fe1a80055
:085374000080fa0000000600b1
:020000040000fa
:10537c000400fa00008fbe001e02be006033b800ad
:10538c00f0012000010020006011b8000000420074
:10539c0081804a0002014b0083814b00e403200012
:1053ac00050020006033b80036ed07000000be0099
:0853bc000080fa000000060069
:020000040000fa
:1053c4000200fa0080408000100078000000e00035
:1053d40003003a000080eb002041880007003700fa
:1053e400804080003000900030009000000f780072
:1053f4001e00780010009000204188000080fa0010
:04540400000006009e
:020000040000fa
:105408000400fa0010079800670007001e009000cb
:10541800600890000000e00003003a00100020003f
:10542800000f7800020037000000eb00000f780042
:10543800410007001e0078000080fa000000060006
:020000040000fa
:105448000400fa00100798001e009000e008900081
:105458001e00900070089000808f500003003a00f2
:1054680010002000000f7800020037000000eb0059
:10547800000f78001e0078000080fa000000060087
:020000040000fa
:105488000000fa00101a2000c011880080002800cf
:1054980080118800004020009011880087c0a90072
:1054a80091058000f08f2f00008060000080a00030
:1054b8009005880097c0a8000080fa000000060048
:020000040000fa
:1054c8000600fa0020079800ae009000010f78004f
:1054d800350007001e007800f00890001e007800d4
:1054e8006008900000805000100798001200070024
:0c54f8001e0090000080fa00000006007a
:020000040000fa
:105504000200fa00c000200004fb0700000f78002e
:105514001e0078000000e000050032001e00780044
:105524008000eb00010878001e80e80008fe0700f8
:0c5534001e0078000080fa000000060055
:020000040000fa
:105540000000fa00604080000000e9006040880030
:10555000604080000000e00005003a001102800079
:10556000f0f12f00008060001002880000000000b1
:085570000080fa0000000600b3
:020000040000fa
:105578000400fa00100798001e00900060089000d0
:105588000000e00003003a0010002000000f78003f
:10559800020037000000eb00000f78001e007800c2
:0855a8000080fa00000006007b
:020000040000fa
:1055b0000000fa0011028000f0f12f00008060006e
:1055c0000050a00010028800000000000000000051
:1055d000604080000000e800604088000080fa0021
:0455e00000000600c1
:020000040000fa
:1055e4000200fa00000f7800040037001e00780063
:1055f400104078001e0fe80019fd07001e00780017
:10560400104078000004e000f8ff3a000080fa003f
:04561400000006008c
:020000040000fa
:105618000200fa00000f78001e0078004019880088
:105628002023a8000000000000198000610060002d
:105638000000e000fcff3200001880000080fa0043
:045648000000060058
:020000040000fa
:10564c000200fa00004f7800000000009111800069
:10565c0000202000008060000000e000fbff3a000a
:10566c001e00fb00a01188001e00fb000080fa0049
:04567c000000060024
:020000040000fa
:105680000000fa000001eb0060042000710520001a
:10569000237420008049780081497800824978008d
:1056a00000002300203a88004827ef000080fa001d
:0456b00000000600f0
:020000040000fa
:1056b400801f78000200fa0087c0a90002003700aa
:1056c400b0118000004f78009011800061006000ec
:1056d4000000e000faff3a000080fa004f00780072
:0456e400004006007c
:020000040000fa
:1056e8000000fa0011028000f0f12f000080600035
:1056f8000050a00010028800000000000000000018
:105708001a28ef00080107000080fa0000000600d0
:020000040000fa
:105718000200fa0070408000e0009000010f78005d
:105728007040800071408000b1089000e480100053
:10573800610098001e0078000080fa000000060052
:020000040000fa
:105748000800fa0030079800be009000010f7800aa
:105758000000eb00100798001e0078009000780009
:10576800210798002e0090000080fa000000060033
:020000040000fa
:10577800809fbe000000fa00204080003140800079
:1057880061004000e08048002040880031408800e7
:105798008760a9000080fa004f00be0000400600a4
:020000040000fa
