:020000040000fa
:080000000002040000000000f2
:020000040000fa
:10000800ce340000ce340000ce340000ce340000e0
:10001800ce340000ce340000ce340000ce340000d0
:10002800ce340000ce340000ce3400007031000021
:10003800ce340000ce340000ce340000b0330000cf
:10004800ce340000ce340000ce340000ce340000a0
:10005800ce340000ce340000ce340000ce34000090
:10006800ce340000ce340000ce340000ce34000080
:10007800ce340000ce340000ce340000ce34000070
:10008800ce340000ce340000ce340000ce34000060
:10009800ce340000ce340000bc2c00000e2d000031
:1000a800ce340000ce340000ce340000ce34000040
:1000b800ce340000ce340000ce340000ce34000030
:1000c800ce340000ce340000ce340000ce34000020
:1000d800ce340000ce340000ce340000ce34000010
:1000e800ce340000ce340000ce340000ce34000000
:1000f800ce340000ce340000ce340000ce340000f0
:10010800ce340000ce340000ce340000ce340000df
:10011800ce340000ce340000ce340000ce340000cf
:10012800ce340000ce340000ce340000ce340000bf
:10013800ce340000ce340000ce340000ce340000af
:10014800ce340000ce340000ce340000ce3400009f
:10015800ce340000ce340000ce340000ce3400008f
:10016800ce340000ce340000ce340000ce3400007f
:10017800ce340000ce340000ce340000ce3400006f
:10018800ce340000ce340000ce340000ce3400005f
:10019800ce340000ce340000ce340000ce3400004f
:1001a800ce340000ce340000ce340000ce3400003f
:1001b800ce340000ce340000ce340000ce3400002f
:1001c800ce340000ce340000ce340000ce3400001f
:1001d800ce340000ce340000ce340000ce3400000f
:1001e800ce340000ce340000ce340000ce340000ff
:0801f800ce340000ce340000fb
:020000040000fa
:10020800ce340000ce340000ce340000ce340000de
:10021800ce340000ce340000ce340000ce340000ce
:10022800ce340000ce340000ce340000703100001f
:10023800ce340000ce340000ce340000b0330000cd
:10024800ce340000ce340000ce340000ce3400009e
:10025800ce340000ce340000ce340000ce3400008e
:10026800ce340000ce340000ce340000ce3400007e
:10027800ce340000ce340000ce340000ce3400006e
:10028800ce340000ce340000ce340000ce3400005e
:10029800ce340000ce340000bc2c00000e2d00002f
:1002a800ce340000ce340000ce340000ce3400003e
:1002b800ce340000ce340000ce340000ce3400002e
:1002c800ce340000ce340000ce340000ce3400001e
:1002d800ce340000ce340000ce340000ce3400000e
:1002e800ce340000ce340000ce340000ce340000fe
:1002f800ce340000ce340000ce340000ce340000ee
:10030800ce340000ce340000ce340000ce340000dd
:10031800ce340000ce340000ce340000ce340000cd
:10032800ce340000ce340000ce340000ce340000bd
:10033800ce340000ce340000ce340000ce340000ad
:10034800ce340000ce340000ce340000ce3400009d
:10035800ce340000ce340000ce340000ce3400008d
:10036800ce340000ce340000ce340000ce3400007d
:10037800ce340000ce340000ce340000ce3400006d
:10038800ce340000ce340000ce340000ce3400005d
:10039800ce340000ce340000ce340000ce3400004d
:1003a800ce340000ce340000ce340000ce3400003d
:1003b800ce340000ce340000ce340000ce3400002d
:1003c800ce340000ce340000ce340000ce3400001d
:1003d800ce340000ce340000ce340000ce3400000d
:1003e800ce340000ce340000ce340000ce340000fd
:0803f800ce340000ce340000f9
:020000040000fa
:100400002fe421000e7f22000e0188000000000072
:100410000c000700c0d622000100200011000700d8
:10042000000020000000e000020032000000020096
:100430000000000024320200000000000040da004a
:100440000000fe004440a900a00a20000000e000d7
:100450000300320000002000a00188004440a800f2
:100460000000060091018800800078000000eb0089
:1004700015003700e280400032a0b4009101ba00bc
:10048000e280400032a0b4009102ba00e280400055
:1004900032a0b4000002eb00472bde00f507b200eb
:1004a000602ce10004003a000059eb008301e900f0
:1004b000fdff3e00040037006128e100010032002a
:1004c0000082eb00040007001101ba000200e00006
:1004d000e8ff3a00000006003159ba008301e90044
:1004e0000c0032002159ba008301e90008003200f3
:1004f0000400e00003003a00e280400032a0b400b3
:10050000f5ff370011d9ba008301e900faff3a007c
:100510008100e800e180400032a0b4000000060045
:100520009c13040000000000522a04000000000098
:100530001e2a0400000000005425040000000000f2
:10054000cc24040000000000fa2f0400000000008a
:10055000a42f040000000000883204000000000006
:10056000f8310400000000009e310400000000008b
:100570000000fa0099a0a90001e6a90089a0a9003d
:100580000080fa00000006000a00fa00000f780060
:10059000110798002207980033079800044f98002d
:1005a0000000eb007030880099a0a90089a0a90084
:1005b000d1058000f0f82f0000806000d005880091
:1005c0001e007800003088001e0090001030880067
:1005d0002e009000603088003e009000203088009f
:1005e0000e48900067406000674060006740600010
:1005f0000080fb00670060004400dd00d205800041
:10060000f1f82f008100610000807000d0058800a3
:100610000e4890000080fb00680060004380de0010
:1006200000407800614060000080fb0061006000d5
:100630004d00dd00c2048000f1ff2d00810061004b
:1006400000807000c004880001e6a8000080fa0065
:10065000000006000200fa00000f78001e0078007b
:10066000203088000080fa000000060003f0a2009d
:10067000889fbe008a9fbe008c1f78000201070081
:10068000090133006450e1004f0032006420e100b2
:100690005200320003826c0007003b000905d000c5
:1006a0000306d000820f54000c065d0002003900e2
:1006b0000200320089017800030678008582550027
:1006c00004003d000003fd008103fd008502ea00f7
:1006d0008b854200840f720002003b006000100016
:1006e000e08018006011b8000005eb007a28e100f6
:1006f0000a00390006007800c75ddd00f707b20088
:10070000878075002d003700828171000a01780012
:10071000610560008180d1000080d3008502e9007e
:10072000f9ff3b00060440008784480002003b00bc
:1007300060041400e0841c000988a3000700320054
:100740008a81710082817100610164008904d10095
:100750000884d3008b05e800170037000978a30050
:1007600013003a000b00e000130034008b05e90091
:100770000804440089844c000a4474000978a300ea
:100780000d003a000b00e000070034008b05e90083
:100790000804440089844c0001003a000b0020004a
:1007a0000978a300f7ff32000001eb0002003700d8
:1007b000828171000a017800780007000cf0a70020
:1007c00001f0a000c10037006420e10002003a00ff
:1007d000838f6c00c10033000801be000200be0020
:1007e000ba003700889fbe008a9fbe008c1f780029
:1007f000a5000700ac00330003866c006450e100e4
:100800002e0032006420e100330032006150e1002c
:100810002f0032006120e100310032008585550053
:10082000eb07b00009002000080420000500370095
:100830000804440089844c000a0031000603430088
:1008400087834b000001530081815b00f8ff330078
:100850000203be000800a0000804440089844c0084
:10086000f6ff3900c639dd00830173000100320054
:10087000130020008904d1000884d3000998a30044
:10088000050032000800a7000300a0008904d10081
:100890000884d3008b05e8008904d1000884d300c4
:1008a0000001eb000281d2003c00070001f0a10032
:1008b0000cf0a70001f0a000840037006420e100e4
:1008c000860032000801be000200be00f7ff3700bc
:1008d0006120e100810032006000b800f3ff3700c2
:1008e0000000200001f82700f0ff3700839f680018
:1008f0000100e00002003d0060001000e0801800f0
:100900000300e00002003d0060011100e0811900d9
:10091000a90007004f00e00002003b00600010004b
:10092000e0801800000006000001be004100070042
:100930000470a70003f0a10003f8a30013003a001d
:100940006509b10010003200090035006928e10096
:1009500002003500010028000000050000004000f2
:10096000818048008502e900fcff3a000000060093
:10097000f88f4200050035008100d1000080d300cf
:100980008502e800fcff3a00000006008000eb0052
:10099000000005006011b8009700370081002000ba
:1009a000618055000b003d000b00200061fe2f0010
:1009b0000100e1001d0034008281710061016400ca
:1009c0008904d1000884d3000000e800faff3a004f
:1009d00071002000610064000300700002006000ec
:1009e0000900320061044400e0844c000988a5003d
:1009f000050032008b05e8006808e10002003a00bb
:100a00008904d1000884d300f20f20000258e100cd
:100a100005003d00c75ddd00f907b2008980750063
:100a200008007800000006000bf827008b00780013
:100a300000000500c70ade00f107b200f50fb200a2
:100a400008003200e1cf4200020032000170a00035
:100a500024000500810f7000010032000408050029
:100a600044000500810f700002003a0014000500e8
:100a70008502e9000000400081c04800fcff3b0007
:100a80000170a000240005000004be00e9ff07007b
:100a90000003be000405be000200be00e5ff070023
:100aa000844f7500000006000200be006450e100a3
:100ab000050036006420e100020036000968a3004a
:100ac00001003a000800be000160a0004f06780057
:100ad0004f05be004f04be0000000600f0ff2f00cf
:100ae000f1ff2700f9ff3700889fbe008a9fbe00f4
:100af0008c1f7800e4ff0700ebff330003866c00d7
:100b00006450e100240032006420e100270032003c
:100b10006150e100220032006120e100210032003a
:100b20008b854200eb07b1000134b800003ab800f1
:100b30000804420089844a00013ab8000030b80035
:100b40008880400009014a00040033000000400092
:100b500081804800020149008b05e900c909dd00d8
:100b6000830170000100320013002000c814de0071
:100b70004814dd004709de001200b200c808de009c
:100b80000884700085ff070001f0a1000cf0a700a9
:100b900001f0a000cdff37006120e100cfff32005f
:100ba0000801be000200be00f7ff37006150e100ff
:100bb000fcff3a00c9ff37006022b800060220009f
:100bc0000000d0008180d2000482d2008582d20051
:100bd0000000a0000202520083825a00030031008c
:100be0000202420083824a000000a1000603e900dd
:100bf000f3ff3a0000000600889fbe008a9fbe00f7
:100c0000008270000402710004827100260032002c
:100c10000004be000200be006011b8006b09200095
:100c2000950220000182cf000a0039000541b10081
:100c30000082cf00070039000541b1000982cf00d2
:100c4000040039000541b1000882cf0001003900dd
:100c50000541b10005425200120032000a003b007b
:100c600082817100610164008100d1000080d300a5
:100c70008984d3000884d3008b05e8000442e8008f
:100c8000f7ff3a00070037000804440089844c004d
:100c900000004800818048008b05e9000442e9001b
:100ca000f9ff3a003dff07004f05be004f04be00ac
:100cb00000000600e68747008e1f7800d0bf9f0027
:100cc00066875700012f78000e003700dfb99700c4
:100cd000134178006fb8970090407800814f510021
:100ce000040032000280fb008180fb000100500004
:100cf000080037008301e800d3bf9f00000fe80021
:100d0000040178000202e900e00f5100efff3a0011
:100d1000020078004f0778006f00b1000000060065
:100d20008001780002003700b15978000401780092
:100d30000202e900e00f5100fbff3a00000006004c
:100d400080017800020037008159780004017800a2
:100d50000202e900e00f5100fbff3a00000006002c
:100d60000c00fa00889fbe0000047800f0ff270006
:100d7000d0bf9f008004eb0099bf9f0088bf9f00f9
:100d8000a8bf9f00200c2000b0bf9f0078815700b3
:100d9000cfb0970070805700070007000fb897008a
:100da000094878008fb89700088050004f04be00b3
:100db0000080fa00000006000f04b000889fbe000b
:100dc0008a9fbe008c9fbe008e1f7800c0b79f0018
:100dd000d1af9f00a2b79f000000eb00c003370017
:100de000dfa897008100e800d1af9f0052c2b30096
:100df00082cf520006003a000007eb0006c3b300a2
:100e000003c2b300b1c2b3005fa89700140037005b
:100e1000cfb19700330190000204b2000500320008
:100e2000030278009401780085497800030ae800fd
:100e3000070037000501fb00cfb0970002007800e3
:100e4000b403070000017800e10f4100a503320060
:100e5000bfb297008502e800b5b79f00a103370035
:100e600090427800d7c2b30087cf52000b00320007
:100e70000001e80087cf520005003c0083cf5200fc
:100e80000900320081cf52000e003a0008003700fe
:100e900086cf52000b003a00070037000e30a0004a
:100ea0000000e800eeff37000e00a000030037004e
:100eb0000e10a000010037000e20a00002007800f4
:100ec000e7ff3700d0af9f00e2016700010032006a
:100ed0000e00a100e8016700010032000e20a10011
:100ee0008501fb000303b100e98f51000d003e00b6
:100ef000000020005fa997006a00b9000003b1005c
:100f00009200fb0001004000d200fb000103b10091
:100f1000e98f5000f8ff3600c0af9f00d2af9f00ae
:100f20000c0037008004eb00c9af9f00a3c2b300e0
:100f300083cf520007003a002fb59700ca0578000a
:100f4000aab79f00cbaf9f005fa897000000e80002
:100f5000d0af9f008000eb00e1af9f00e3c2b30081
:100f60005fa9970092cf11001e003a000ee0a0008a
:100f7000e4c151000201e800d2af9f0012427800a4
:100f8000834f52000d003a00afb29700450378003e
:100f9000a5b79f00e6af9f00820378008703e800b3
:100fa00007017800100037006a00b9000003b100a3
:100fb000020040008301e800020037006fa897009c
:100fc000dfa997001301fb0001fd2f008280400084
:100fd000e98f5000f4ff3600e0af9f000301780076
:100fe000010037005fa9970032427800c4779f0064
:100ff000c8c6b300884f520023003200d2af9f0012
:101000000f003c0035c6b300854f5200a7003200e8
:1010100004003c00e04f52003703320083c5b300a8
:101020000f00370043c6b300834f5200c4003200a4
:10103000e5c14100834f5200ba003a00c0003700ba
:1010400035c7b300854f52001a00320007003c003c
:10105000f3c6b300834f5200110032008341e80011
:10106000834f5200af003a000f00370053c7b30060
:10107000834f5200b1003200e3c14100834f520060
:10108000a8003a000900370070006700010028003e
:1010900001003a000101200001077700d2ff37006c
:1010a0000e60a000a60037000e50a0000e70a00039
:1010b000a3003700afb49700c9027800a9b79f001a
:1010c000d5b79f00e08f520002003a00cbe021002c
:1010d000dbb79f000000eb00e0b79f005fb0970018
:1010e000efb097007fb197008fb9970001003700ec
:1010f0008500e8008102780061427800e04f5200ec
:10110000fbff3a00d0b79f00e1b79f00f2b79f0006
:1011100083bf9f00efaa9700e08f520005003200c6
:101120006fb39700868f520002003100850378006c
:10113000e7b79f00efb297000006eb004fac9700b7
:10114000850f54000100360005065400680767004b
:101150002f003a008c01780008c2b300cfb6970088
:10116000100037003d0090000004b200040032007f
:101170001d00780008487800800ee8000500370060
:101180008d00780000022000e2020700e10f40001d
:1011900003003200bfb497008904e800b9b79f008c
:1011a0008c0178000c06e900e08f5100edff3a0059
:1011b000170037003d0090000004b2000900320023
:1011c0009d0178000801780032407800804978005d
:1011d000830ee80002047800e04f500008003a0057
:1011e00010003700080178003200fb00020478008c
:1011f0008d007800c7020700e10f400009003200af
:101200003fb097000000e800b0b79f00050037002e
:101210005fb49700efb497007fb597008fbd97003c
:10122000cfb69700090078008004e900e00f500075
:10123000e0ff3a00d8b79f00e9b79f00fab79f00d8
:101240008bbf9f00e00f5700a6023200110037004d
:10125000380090000004b20004003200180078004a
:101260000d487800000ce800050037008800780081
:1012700000022000a7020700e10f40000300320037
:10128000bfb297008502e800b5b79f000e06780050
:10129000020037000dc2b3004fb497000c07e900fd
:1012a000e00f5600eaff3a008e0237002fb3970096
:1012b00046047800a6b79f00cfc4de000905780079
:1012c0008a0578000802be000a03be004822de003c
:1012d0004828dd0004027000c4779f007006670094
:1012e00009003200e04f520007003200e14f420097
:1012f00005003200d4779f00e8779f00210020008e
:10130000e1b79f0003003700d8779f00120020004c
:10131000e2b79f0053fb2f0083814700d3b79f00a4
:101320007cff370044fb2f0004824700d4b79f00a6
:1013300015002000e5b79f0076ff37000e0cb300c4
:101340000e007800000cb2003b003a00e00f57009e
:1013500005003d002fb097004005be004004be00d0
:10136000a0b79f000f003700700067001200320026
:101370002fb297004401be00a4b79f00e29f9f00d8
:10138000f39f9f00140090004f80de0080a79f0015
:1013900090a79f006f9c9700ff9c97000fa5970058
:1013a0009fa59700d8b79f00e9b79f00fab79f00a5
:1013b0008bbf9f000b003700afb497004902780045
:1013c000a9b79f0004007800cf80de0001017800fb
:1013d00082017800d0b79f00e1b79f00f2b79f006d
:1013e00083bf9f005fb29700efb297007fb3970073
:1013f0008fbb9700e00f5200e08f5a00e00f5b00b8
:10140000e08f5b0032003d003e00b3006022b80078
:101410006033b8005fb49700efb497007fb59700d2
:101420008fbd97000804520089845a000a055b00aa
:101430008b855b0022003700e00f570005003d0060
:101440002fb297004401be004400be00a4b79f0025
:101450000f00370070006700120032002fb49700b1
:101460004803be00a8b79f00e6a79f00f7a79f000c
:101470008004eb0089af9f000005eb009aaf9f004e
:101480006fa09700ffa097000fa997009fa9970052
:10149000d0b79f00e1b79f00f2b79f0083bf9f00c6
:1014a0000b003700afb0970041027800a1b79f0052
:1014b00004047800090020000a0020000b0020002e
:1014c000d8b79f00e9b79f00fab79f008bbf9f0076
:1014d000efac9700e08f54000d003a001a00200096
:1014e000eaaf9f005fb09700efb097007fb1970021
:1014f0008fb99700e00f5000e08f5800e00f5900bf
:10150000e08f5900020032008000eb00e1af9f0045
:101510000e017800020cb200b2af9f00050420005b
:10152000850f51003f00320003003c00e00f5100e6
:10153000080032005600370004082000bfa99700b9
:10154000848f51001b003200040c2000848f510056
:101550004f003a0013c0b300c3779f00a1d421000d
:10156000100037000200fb004300dd000080400057
:101570003002be002003be005fb49700efb49700b6
:101580007fb597008fbd97000440e10005c8e100da
:1015900006d0e10007d8e1003d0039000241e80033
:1015a000c2779f004f719700f44f5100edff3a0052
:1015b0003700370013c0b300c3779f000401200039
:1015c000050020006033b800120037005fb49700b8
:1015d000efb497007fb597008fbd97000440e100fe
:1015e00005c8e10006d0e10007d8e1002800390075
:1015f000490020000402d0008582d2000683d20078
:101600008783d2008904e900faff3a000040e8002d
:10161000c0779f004f709700f04f5000ebff3a00eb
:101620001b00370013c0b300c3779f008400200065
:10163000050020006033b800120037005fb4970047
:10164000efb497007fb597008fbd97000440e1008d
:1016500005c8e10006d0e10007d8e1000c00390020
:10166000390020000402d0008582d2000683d20017
:101670008783d2008904e900faff3a000040e800bd
:10168000c0779f004f709700f54f5000ebff3a0076
:101690004f7597008a02fb00efad97008b8f5200c9
:1016a00002003d00cb779f00040037006fa8970031
:1016b000850f500001003d00e5af9f00cfa89700c7
:1016c000e08f500004003200630267000200320025
:1016d0008100e900c1af9f000400240004026700fc
:1016e000090032004fa99700efa99700830f51001e
:1016f0000300340003015100c2af9f000200370015
:101700000002eb00c4af9f004f7397008602fb00fe
:101710008003eb00a7af9f004fac9700850f5400ec
:101720000200340085025400a5af9f0064026700e8
:101730004c003200e202670061036700e08f520054
:101740001b003200cfb49700390290000404b200ad
:101750000900320099037800b5c2b300e00f5300ce
:101760000100320085c2e800854b78004fb5970034
:10177000070de8000a003700d5022000e00f5300f3
:1017800001003a008582e900cfb09700050078009b
:101790006001070000027800e10f420018003200eb
:1017a000bfb597008b05e800bbb79f00140037005a
:1017b000e00f5300120032004fb09700300290004b
:1017c0000404b200050032009002780003c2b300a6
:1017d000834a78000508e80006003700cfb097007c
:1017e000000220004b01070000027800e10f4200d8
:1017f00003003200bfb097008100e800b1b79f003e
:101800002fa99700e00f51001101320008c3b30067
:10181000820678004fb697003c0090000004b200aa
:10182000040032001c00780008487800000ee80030
:10183000050037008c007800000320003501070008
:10184000e10f400003003200bfb197008301e800c0
:10185000b3b79f008d06e900efff3a00adaf9f00e0
:10186000fb0037002faa9700e00f5200170032004c
:101870006802670015003a0008c2b300afae9700d7
:101880004fb697003c0090000004b2000400320004
:101890001c00780008487800000ee80005003700ba
:1018a0008c007800000220001a010700e10f4000c0
:1018b00003003200bfb297008502e800b5b79f0071
:1018c0008d06e900efff3a00adaf9f00e20267002e
:1018d00061036700e08f52001c003200cfb3970015
:1018e000370290000404b2000a00320007047800b6
:1018f00098037800b5c2b300e00f53000100320036
:1019000085c2e800854b7800cfb49700870ce800cb
:101910000a003700d5022000e00f530001003a0012
:101920008582e900cfb0970005007800f900070034
:1019300000027800e10f4200c50032003fb5970079
:101940000a05e800bab79f00c1003700e00f530056
:10195000bf003200cfb597003b0290000404b200f4
:10196000050032009b02780003c2b300834a78006e
:10197000850de80006003700cfb097000002200078
:10198000e400070000027800e10f4200b0003200de
:101990003fb097000000e800b0b79f00ac003700f0
:1019a0000e07e90000042000bfa89700808f5000b8
:1019b0008200320003003c00e08f5000080032003b
:1019c0008e003700000820003fa99700800f5100cb
:1019d00065003200000c2000800f510087003a00a3
:1019e0004370dd00cfa99700e08f51002a003d0031
:1019f000a4d42100000042003004be002005be0037
:101a0000e8af9f00f9af9f008ab79f009bb79f0088
:101a10000802be000a03be005fb09700efb0970057
:101a20007fb197008fb9970004020700c0779f002d
:101a30000004fb00cfc4de00090578008a057800a9
:101a40006faa9700ffaa97000fb397009fb3970064
:101a50000800be000a01be00640207000203be00c7
:101a60000002be005fb09700efb097007fb1970013
:101a70008fb9970004005000858058000601590076
:101a800087815900d0b79f00e1b79f00f2b79f0050
:101a900083bf9f0030003700df989700e08f500031
:101aa0001f0032005fb69700efb69700a2d4210066
:101ab000000041003004be002005be000801be0049
:101ac0000c00be003cfc0700c0779f000000fb003c
:101ad000cf80de000801be0044010700000256006e
:101ae00081825e00a4a79f00b5a79f008002eb0043
:101af000c5a79f000003eb00d6a79f002fa4970067
:101b0000bfa497004fa59700dfa59700d8b79f0007
:101b1000e9b79f00fab79f008bbf9f000e00370008
:101b2000a9d42100690178005fb59700811f780072
:101b3000110009000285d800cf007800a200200023
:101b4000811f7800110009000280d8000100780090
:101b5000cf007800c0779f00cf7597000b43b0008f
:101b6000cb779f0025003700a4de21004f98970017
:101b7000e00f500001003a00b4df21004270dd00a8
:101b80005fb49700efb497007fb597008fbd9700c3
:101b9000800278008502e900050033008b05d10042
:101ba0000a85d3008984d3000884d300f9ff370065
:101bb0006f006400644078000f0037006370b90064
:101bc0005fb49700efb497007fb597008fbd970083
:101bd000000278000402e900050033008b05d10003
:101be0000a85d3008984d3000884d300f9ff370025
:101bf000674064000043b000c0779f00cfb29700f9
:101c0000350090000004b200070032001501780092
:101c10004f70970000497800820ae800e04f5000ba
:101c200007003a00120037004f7397000600fb00d0
:101c3000cfb0970037000700e10f40000c003200e2
:101c4000bfb397008703e800b7b79f0008003700cd
:101c500070046700d89f9f008e0478000902b200cc
:101c6000c99f9f000e057800caaf9f006faf970015
:101c7000e00f57004aff3a004faf97006801670036
:101c800018003200afad9700e08f5500150034000a
:101c900008c2b3008b0678003fb797004fb6970095
:101ca0003c0090000004b200040032001c007800e8
:101cb00008487800000ee800050037008c00780026
:101cc0000002200013000700e10f40000100320075
:101cd0000e07e8008d06e900f1ff3a000e007800db
:101ce000b0b79f00dfa8970091427800c5779f00aa
:101cf000e0cf52003afc3a003fb097004f0778001f
:101d00004f06be004f05be004f04be000f04b100d9
:101d100000000600889fbe0001047800b800900013
:101d2000628160008084eb003c0032008101780019
:101d30000320b2001801900002003a00e00f5100a9
:101d400036003a000190a000310498008004780029
:101d5000f90fb200e00f510002003a002800900095
:101d6000000c7800ea8f540006003a000100780069
:101d70000008b20003003a0088007800d00020007c
:101d8000e4ff070018009000d8009000810f500079
:101d90000b0032000000e8001004980018007800e2
:101da00009487800000ce80010c0b300a1e321004e
:101db00080487800ea8f540018003a000500370088
:101dc0008800780009407800170007008004780038
:101dd00012003700380090000010b2000f003200ef
:101de00018019000a80090004800900050000700e3
:101df00098009000810f50000400320038009000dd
:101e00000003b300300498008084eb000000eb0076
:101e10001004980028009000000c78000900780059
:101e20004f04be00000006000200fa00889fbe00ba
:101e3000a0ff9f0001047800380090008000780027
:101e40000104b20033003a00e200600005003a00ed
:101e50000003b30030049800110498000080eb00e8
:101e60002e003700d8049000e08f540006003a009e
:101e700012002000e6805700480090002c00070068
:101e80001904980023003700a8009000e08f50004c
:101e900008003a00d1e3210021049800010c7800e9
:101ea0002100200051049800110498000030a00087
:101eb0003004980018019000a8009000480090009d
:101ec0001b000700280090008080eb0011049800a0
:101ed000aff8970001487800000ce8002ff8970051
:101ee000ea4f50000b003a00380090000010b2009a
:101ef0000800320018019000a800900048009000ef
:101f00000b0007000000eb0010049800a8009000f0
:101f1000010c7800aff897000100fb004f04be00f1
:101f20000080fa000000060000c0da000000060091
:101f30000a00fa00e20f500021003e0000f280008b
:101f4000e10f5000060032008523200044232000ca
:101f50002323200000232000e08f520004003a00d9
:101f6000852220004422200023222000002220007d
:101f7000060028009003630002003a00870a7800f8
:101f800010087300004020001300600001003a00b8
:101f900013a0a0000200780006003700930278002a
:101fa0000510b200fdff3200b102fb00050a780007
:101fb0000000e900e00f5000f8ff3a000800370089
:101fc00033002000b3bf9f00c0bf9f00d1bf9f0060
:101fd000e2bf9f006a805700d3ff07006fb99700e8
:101fe000020078000080fa0000000600020ab90032
:101ff000001bb9000200b8008100420081004300cc
:1020000000000600889fbe008a9fbe003004be000c
:102010002005be000404440085844c0006054d00e4
:1020200087854d000898be000a90be000440e1007c
:1020300005c8e10006d0e10007d8e1000200310048
:10204000680040001008e8004f05be004f04be00c5
:1020500000000600889fbe008a9fbe008c1f78008b
:10206000000678003c04be002c05be0004005400ad
:1020700085805c0006015d0087815d00009ebe00da
:10208000029ebe00100020000440e10005c8e100ef
:1020900006d0e10007d8e100010039000000eb00a4
:1020a0001c0e10004f0678004f05be004f04be0006
:1020b000000006001200fa00889fbe008a9fbe0042
:1020c0008c9fbe000205be000004be00e4b79f0066
:1020d000f5b79f0086bf9f0097bf9f000000eb00f1
:1020e000d0b79f00c0b79f00b0b79f00a0b79f00b8
:1020f00090b79f0000067800fd032000dfb1970035
:102100004fb0970003814100bfb09700e08f5100ae
:1021100004003d00290007007e805700b9ff07003a
:1021200003003700250007007e805700c9ff070025
:10213000dfb09700e08f500007003500140020004a
:10214000050020006033b800080472008984720022
:102150000a0573008b8573000c06e8008d0f56008e
:10216000e6ff3400e08f500006003d006fb297009c
:10217000ffb297000fbb97009fbb97007e80570070
:10218000a0ff07005fa89700e00f500004003a008e
:102190001fb49700afb497003fb59700cfb5970035
:1021a0000800be000a01be004f06be004f05be007b
:1021b0004f04be000080fa0000000600cf01de00e0
:1021c00002817100b2b79f004f09de00000040009d
:1021d00000007100a0b79f000fb097004f01de0014
:1021e000818040008100710091b79f007faa970015
:1021f000cf20de00000040000080700080b79f000c
:102200000800be000a01be004f18de0004024200b2
:1022100000027200f4af9f000804440089844c005f
:102220000a054d008b854d004fb29700dfb2970035
:102230006fb39700ffb3970000000600881f780077
:1022400018002000881f78009aff07008f87e90098
:102250004f04780000000600801feb0095ff070088
:102260008f87e90000000600889fbe008a9fbe009d
:102270008c1f7800e00f5000e08f5800e00f5900ed
:10228000e08f59000f003d006044b8006055b80071
:102290000000540081805c0002015d0083815d00cc
:1022a0001c0020000820e10009a8e1000ab0e100bc
:1022b0000bb8e1000d003d00190007000006eb001f
:1022c0000a0037000006eb00e00f5200e08f5a00d2
:1022d000e00f5b00e08f5b0004003d006044b8004d
:1022e0006055b8000e0007001c002000d3ff070057
:1022f000e00f5600060032006022b8006033b800dc
:102300000000520081805a0002015b0083815b0063
:102310004f0678004f05be004f04be0000000600c7
:102320000402540085825c0006035d0087835d0023
:1023300000000600889fbe008a9fbe008c1f7800a8
:10234000e00f5000e08f5800e00f5900e08f590077
:102350000d003d006044b8006055b8000000540016
:1023600081805c0002015d0083815d001c00200013
:102370000820e10009a8e1000ab0e1000bb8e10083
:102380000d003d00080037000006eb00e00f520092
:10239000e08f5a00e00f5b00e08f5b0006003d001d
:1023a0006044b8006055b8000402540085825c00a7
:1023b00006035d0087835d00a7ff0700e00f56005e
:1023c000060032006022b8006033b80000005200fe
:1023d00081805a0002015b0083815b004f06780018
:1023e0004f05be004f04be0000000600889fbe00df
:1023f0008a9fbe008c1f78000006eb00e00f5000a3
:10240000e08f5800e00f5900e08f590007003d00b1
:102410006044b8006055b8000000540081805c0042
:1024200002015d0083815d001c002000e00f52006e
:10243000e08f5a00e00f5b00e08f5b0007003d007b
:102440006044b8006055b8000402540085825c0006
:1024500006035d0087835d000c00a2000c000700ee
:10246000e00f5600060032006022b8006033b8006a
:102470000000520081805a0002015b0083815b00f2
:102480004f0678004f05be004f04be000000060056
:10249000889fbe008a9fbe008c9fbe000404b800c7
:1024a0000506b8008904460060854e000606b8009f
:1024b0000a054600e0854e000706b8008b05460079
:1024c000040eb800890446000a854e00e0854d00e0
:1024d000050eb8000a0546008b854e00060eb800b2
:1024e0008b0546000416b8000a0546008b854e0091
:1024f0000516b8008b054600041eb8008b05460083
:102500000800be000a01be004f06be004f05be0017
:082510004f04be0000000600ac
:020000040000fa
:10251800514300006f6e000073420000310000005c
:1025280051500000726f0000644200003200000049
:10253800514300006f6e000073420000330000003a
:1025480051500000726f0000644200003400000027
:1025580051500000726f0000644200003500000016
:10256800514300006f6e0000734200003600000007
:1025780011110000222200003333000044440000ff
:1025880055550000666600007777000088880000cf
:1025980099990000aaaa0000bbbb0000cccc00009f
:1025a800dddd0000eeee0000cecd0000acab00009b
:1025b800494400004c45000000a50000a5a5000006
:1025c800a5a50000a5a50000a5a50000a5a50000db
:1025d800a5a50000a5a50000a5a50000a5a50000cb
:1025e800a5000000636e0000742000002564000050
:1025f800005400006573000074000000546100007e
:10260800736b00002031000000540000617300006b
:102618006b2000003200000096000000c800000097
:10262800fa0000002c0100005e010000900100008b
:10263800c2010000f401000042540000657300006c
:1026480074310000004200005465000073740000fb
:1026580032000000496e0000744d000061740000f3
:042668006800000006
:020000040000fa
:10266c0080007800d10190000000eb00a2c821008e
:10267c00828f510008003a00a108900002c8210086
:10268c00828f50000400320010002000e08f5000b8
:10269c00010032000000eb0000000600c0e48000e6
:1026ac008000eb00908f100002003a009abcef0003
:1026bc0005003700c0e4800030009000300090002e
:1026cc0010009000d0e4880000000600881f7800fd
:1026dc0000047800f0e9800018009800a0e4800065
:1026ec00800f540006003100f1e98000b0e4800056
:1026fc008180e8003c330200000000000900370034
:10270c00f1e98000c0e480008180e8003c330200e5
:10271c0000000000d0e48000800f54000100310064
:10272c00d8e488004f04780000000600c0e2800066
:10273c00e10f5000030036003234020000000000ac
:10274c00000000008432020000000000f7ff370098
:10275c00889fbe008a1f78008004780001057800ed
:10276c0060022000823402000000000000047800a7
:10277c00e00f54000c003200e00f55000e003a0040
:10278c00098044008234020000000000400c9800d4
:10279c00e00f500009003a0008007800c034020035
:1027ac00000000000004eb00080078004f057800e2
:1027bc004f04be00000006004a0c9800098144003a
:1027cc0048089000510a2000a006020000000000fa
:1027dc00f5ff3700889fbe00000478001140780098
:1027ec00205c98000042eb00914f12000b0032006d
:1027fc0010002000808140000002440093427800c9
:10280c00255a98000042eb00934f1200030032004f
:10281c000000e800e30f5000f6ff36000040eb002c
:10282c00505c980082047800e38f5400010036005d
:10283c0039002000390c98000880e800223302008f
:10284c00000000006c004400223302000000000075
:10285c0048049800e484140069049800180c98004b
:10286c006000b80000149800111498000000eb00f0
:10287c00201498004f04be0000000600889fbe0084
:10288c000004eb0089c521006a40b90000804400b7
:10289c0012330200000000000804e800e30f5400ab
:1028ac00f9ff360080ca210012330200000000003c
:1028bc0020cb2100123302000000000000c82100d0
:1028cc001233020000000000a0c8210012330200e5
:1028dc000000000080ca2100c0e4880020cb210049
:1028ec00b0e488004f04be0000000600e6874700f5
:1028fc00889fbe008a9fbe008c9fbe008e1f7800f2
:10290c0000077800010678008204780083bf9f00de
:10291c000405be00f7b79f00860078000900780018
:10292c008bff0700000478000083eb00e00f5400dd
:10293c0042003200c80e900006824400040242009d
:10294c0004824600740c980009027800ffb19700cd
:10295c000a0178008c007800080078009dff0700c1
:10296c000fb997008e0078000d007800b03002008f
:10297c0000000000000c7800e08f550001003200d0
:10298c00880d78004031020000000000a23cec00f1
:10299c00f0e98000e00f500006003a00f8e98800ea
:1029ac0010e58000e10f50000a003a00b3ff070069
:1029bc000800370020e58000e00f500005003a00c9
:1029cc00f0e9800030089000800f550001003900bc
:1029dc00f8e98800a63cec0038089000b1e28000d1
:1029ec00810f500001003600b0e288000884e80036
:1029fc006a00b90082c521000000410088007800ff
:102a0c0028330200000000005831020000000000d2
:102a1c0020e5800016002000e00f50000700320077
:102a2c00f0e9800030089000800f5500030036005c
:102a3c0032340200000000000000000006007800a4
:102a4c004f0778004f06be004f05be004f04be0076
:102a5c006f00b10000000600889fbe008a1f78003e
:102a6c000004be00e38f5400010036003900200042
:102a7c004031020000000000e00f540001003a0059
:102a8c00f8e9800038089000890f500032003200bd
:102a9c000b003100f1e980000005eb00810f5400c0
:102aac000c003200f1e980001a002000b1089000ff
:102abc00898f5000070036000005eb000500370039
:102acc00f1e980001a002000810f5400010032004f
:102adc000005eb00390c9800e8009000e08f5000e6
:102aec0002003500e4841400690498006a00b900ff
:102afc0082c5210000004100d8009000808f50005a
:102b0c0010003a008884e800090078006233020063
:102b1c000000000038099000b0e28000800f5100e6
:102b2c0001003600b2e288006a11b90080c52100ac
:102b3c00020140008900780002007800283302006e
:102b4c0000000000e10f550003003a00323402008f
:102b5c0000000000000000005831020000000000de
:102b6c004f0578004f04be0000000600889fbe0091
:102b7c0000047800e00f540023003200f0e98000dc
:102b8c00800f540020003200403102000000000091
:102b9c0008007800b2fe0700e10f500018003a0060
:102bac008884e8000900780062330200000000000d
:102bbc0038099000b0e28000800f5100010036000f
:102bcc00b2e288006a11b90080c521000201400000
:102bdc008900780002007800283302000000000011
:102bec00f0e98000b808900030089000808f500009
:102bfc000300390032340200000000000000000025
:102c0c0058310200000000004f04be000000060016
:102c1c00889fbe008a1f78000004780008007800a6
:102c2c008ffe07008004eb00e10f500020003a00fb
:102c3c00a0e28000890f500018003a00f0e98000f3
:102c4c0019002000b808900030089000808f5000c8
:102c5c00010031008004eb000885e8000a007800d0
:102c6c00623302000000000038099000b0e28000de
:102c7c00800f510001003600b2e288006a11b900e1
:102c8c0080c52100020140008a0078000200780013
:102c9c00283302000000000005003700ec0044005f
:102cac0000c8210028330200000000008004eb0063
:102cbc00090078004f0578004f04be0000000600a4
:102ccc006033b8008602780006027800860178002e
:102cdc0032072000c12d2900c039210003ff070055
:102cec00e10f500010003a0090028000ff3ffc0002
:102cfc0012028000f1f12f00810061000150a00050
:102d0c00110288009002880000008800000000007a
:102d1c009abcef001000200020e58800943cef00e6
:102d2c001431020000000000000006009002800038
:102d3c00ff3ffc0012028000f1f12f0081006100c6
:102d4c000150a00011028800900288000000880049
:102d5c0000000000a43cef00f23002000000000074
:102d6c0000000600543cec0000000600881f7800b0
:102d7c004031020000000000a8e48000583102003d
:102d8c0000000000080078004f04780000000600e6
:102d9c00a0e480000000060010e5800000000600a2
:102dac00889fbe008a9fbe008c9fbe00a0e2800060
:102dbc00e00f500043003a00943cec00abe4800080
:102dcc00e08f550006003a00c0e48000961cf80025
:102ddc00981cf900b0e488009e3cec002ffe070024
:102dec00d0e480000005eb008cc521001d00200004
:102dfc00808f5500020031002a0037000d05780045
:102e0c00c0e480008000eb00908f100002003a00bc
:102e1c009abcef0023003700c0e480003000900023
:102e2c003004900018009000808f55000200310093
:102e3c00d0e488001b0037008884e8000900780083
:102e4c00623302000000000028089000e00f5000e0
:102e5c00030032006c0044006233020000000000ea
:102e6c0038099000b0e28000800f5100010036005c
:102e7c00b2e288006a11b9000201460089007800ac
:102e8c00020078002833020000000000f0e9800006
:102e9c00b808900030089000808f5000d7ff3100a8
:102eac00d7ff3700f0e98000300890006a00b900c5
:102ebc0082c5210062007800e10f500004003e0042
:102ecc0004003700a03cec000005eb0001003700cb
:102edc001a002000e0e48000e00f500001003200f6
:102eec001a0020000a0078004f06be004f05be00f5
:102efc004f04be0000000600889fbe008a9fbe00e3
:102f0c004031020000000000543ced00a0e28000c3
:102f1c000004eb00880f50003a003a0010e58000e6
:102f2c008ac521001b002000880f50001b003a00ae
:102f3c003400370030e48000300490006c00440012
:102f4c0062330200000000008884e8000900780069
:102f5c00623302000000000038099000b0e28000eb
:102f6c00800f510001003600b2e288006a11b900ee
:102f7c000201450089007800020078002833020025
:102f8c0000000000f0e98000b808900030089000c4
:102f9c00808f500001003900ebe4880000e48000d1
:102fac00e00f5000e3ff3a0000e58000e00f500016
:102fbc000c00320000e58000e00f500009003200e8
:102fcc001800200076ff0700e00f500001003200cf
:102fdc00e8e48800a03ced0000e58000e00f500024
:102fec00f8ff3a00e0e480000004eb00e10f500031
:102ffc0004003a003234020000000000000000001f
:10300c001800200058310200000000000800780071
:10301c004f05be004f04be0000000600889fbe0096
:10302c0000047800e00f54000a0032004dff070046
:10303c00a9e480003e9dec00623302000000000019
:10304c0009004400a1fd0700abff0700e00f500092
:10305c0003003a00323402000000000000000000bf
:10306c004f04be0000000600889fbe00800478005c
:10307c00010478003bff0700a0e4800019017800f0
:10308c0002044400820f500006003100880f5100ea
:10309c0017003600880c7800880f50000b003100a8
:1030ac0005003700880f51000f003e00880f5000bc
:1030bc000d0039000e0037003e9dec00623302001b
:1030cc00000000000800780080fd07008aff070060
:1030dc00e00f500008003a003234020000000000fb
:1030ec000000000004003700880c7800f2ff370065
:1030fc00880c7800f5ff37004f04be000000060076
:10310c00a0e28000e00f500003003200100020000d
:10311c00e0e48800330037009c3cef00f0e98000cd
:10312c00700890007400500042012000112e2900fc
:10313c005a06020000000000e00f500005003200ab
:10314c00f1e98000f0e98000fa804000863202004c
:10315c0000000000b0e280006a00b90082c52100c6
:10316c0062007800e00f500007003a00563ced007a
:10317c00b0e280006a00b90082c5210062007800cc
:10318c00e00f5000f9ff3200b0e280006a01b90094
:10319c00820078000181e80083c521006301790079
:1031ac00120190000382e80002b27800e480400033
:1031bc0083814000830f510004003a006a02b90079
:1031cc00a1c521001201900082307a006a00b9007a
:1031dc000080e80081c5210061007800300090007b
:1031ec00f0e9880000000600889fbe00000478000b
:1031fc004031020000000000e00f540001003a00d2
:10320c00f8e980008884e800090078006233020045
:10321c000000000028089000e00f5000030032006e
:10322c006c0044006233020000000000890078004a
:10323c00a0c8210028330200000000005831020011
:10324c0000000000f0e98000800f54000f003a00ed
:10325c0020e58000e00f5000040032003234020000
:10326c0000000000000000001000370010e5800096
:10327c0051e48000808f500002003a003e3def0088
:10328c000a0037009eff07000800370020e5800089
:10329c00e00f500005003200403102000000000039
:1032ac00fefc070058310200000000004f04be0075
:1032bc0000000600881f780001047800f1e9800006
:1032cc00ec8040003c330200000000003e9dec000e
:1032dc006233020000000000e10f440006003a00d7
:1032ec00f1e980008180e800a0c8210028330200a9
:1032fc000000000003003700a0e480000000440040
:10330c00f2fc07004f04780000000600881f7800cc
:10331c0002047800f2e9800003002800838070002a
:10332c0061019800f1e98000ec8040002833020034
:10333c00000000003e9dec00623302000000000023
:10334c00e10f440006003a00f1e980008180e800ba
:10335c00a0c8210028330200000000000300370041
:10336c00a0e4800000004400d8fc07004f04780063
:10337c0000000600889fbe003000900030049000d2
:10338c00ec044400090078006233020000000000e5
:10339c00a0e28000e00f500011003a008884e800a1
:1033ac000900780062330200000000003809900028
:1033bc00b0e28000800f510001003600b2e28800bc
:1033cc006a11b90080c52100020140008900780013
:1033dc0002007800283302000000000004003700cf
:1033ec008900780000c8210028330200000000008a
:1033fc00f0e9800038099000b00890000000eb0064
:10340c00810f51000200360010002000e0e488001b
:10341c004f04be0000000600889fbe00020028007a
:10342c00028870003004900062330200000000003b
:10343c008884e80009007800623302000000000074
:10344c0038099000b0e28000800f51000100360076
:10345c00b2e288006a11b90080c521000201400067
:10346c008900780002007800283302000000000078
:10347c00f0e9800038099000b00890000000eb00e3
:10348c00810f51000200360010002000e0e488009b
:10349c004f04be0000000600f1e480000108780033
:1034ac00a1e480001100980000000600889fbe0077
:1034bc008a1f780000047800010578004031020072
:1034cc0000000000a2e480001a0078008004eb00e9
:1034dc00e10f400011003200f1e48000988f1000e1
:1034ec00040032009800900019002000810f510058
:1034fc000a00310098009000810151001900200051
:10350c00830f50000500360002815000000d410071
:10351c0008007800e0ff07008004eb00583102003f
:10352c0000000000090078004f0578004f04be0031
:10353c000000060010002000e0e4880000000600f7
:10354c00f0e9800060009000f1e98000f2e9800071
:10355c003209900064011100e2009800000006009e
:10356c00889fbe008a1f780000057800010478004f
:10357c004031020000000000f1e9800001119000d0
:10358c0091119000e00f5100e08f590016003a00a5
:10359c00f0e980001100200021109800e00f540089
:1035ac00110032003e9dec0062330200000000006e
:1035bc00e10f440006003a00f1e980008180e80048
:1035cc00a0c82100283302000000000003003700cf
:1035dc00a0e48000000044003cfc070032340200f0
:1035ec000000000000000000583102000000000044
:1035fc004031020000000000f1e98000011490004d
:10360c0091149000e00f5400e08f5c000e0032002b
:10361c00e00f550005003200f2e980006000b800b0
:10362c00001198001111980007003700f2e9800092
:10363c00021090009210900061005000e080580041
:10364c000011980011119800f0e980008000eb0047
:10365c002110980058310200000000000800be0044
:10366c004f0578004f04be0000000600889fbe0086
:10367c008a9fbe008c9fbe000004be000205be00e7
:10368c008406780005067800403102000000000036
:10369c00f0e9800020109000e20f5000250032006d
:1036ac00f0e9800000119000901190000884ea006d
:1036bc008984ea008800610009836100070020000a
:1036cc00c031dd0002002000610bb8000601710062
:1036dc00878171000210980013109800f0e98000a7
:1036ec001100200021109800e00f5600110032004c
:1036fc003e9dec006233020000000000e10f46002a
:10370c0006003a00f1e980008180e800a0c82100a1
:10371c00283302000000000003003700a0e4800002
:10372c0000004600e9fb07003234020000000000f4
:10373c00000000005831020000000000403102007f
:10374c0000000000e08f560004003200f0e9800019
:10375c000011900090119000828ebe00f0e9800064
:10376c00201090000004eb00e10f5000100032001c
:10377c00f4e9800004109000941090000a85ea008f
:10378c008b85ea008a0260000b8160000300200038
:10379c00c010dd00000020006129b800020070009c
:1037ac0083807000001298001112980018002000fd
:1037bc00f0e980008000eb002110980058310200e5
:1037cc0000000000080078004f06be004f05be0048
:1037dc004f04be0000000600889fbe008a9fbe00fa
:1037ec008c1f78000204be00010678008405780066
:1037fc00000578004031020000000000e08f550009
:10380c00030032000a1090009a109000808dbe00c8
:10381c002a12900020002000201598000080eb0058
:10382c008080eb000c014000e0814800e30f510068
:10383c00e08f59001b003e000260010003003700be
:10384c00090037000f003700110037000a109000f4
:10385c009a1090000004740081847400081598007c
:10386c00191598000f0037000a1090009a1090005c
:10387c0061004000e0804800001598001115980088
:10388c000800370008159800191598000500370036
:10389c008005eb00e20f52001e0032000815980064
:1038ac00191598001b0020008b0f520019003a00cc
:1038bc000a84e8000800780062330200000000006f
:1038cc003a099000b0e28000800f510001003600f0
:1038dc00b2e288006a11b90080c5210002014000e3
:1038ec0088007800020078002833020000000000f5
:1038fc00f0e98000ba089000300890001b0020000e
:10390c00808f5000030036003234020000000000ab
:10391c000000000058310200000000000b0078008d
:10392c004f0678004f05be004f04be000000060095
:10393c00889fbe008a1f78000103780085047800f8
:10394c0000047800e00f52000300320008109000d1
:10395c0098109000008abe00a81390002000200050
:10396c00201498000080eb008080eb0006024000e1
:10397c00e0824800e30f5200e08f5a001b003e002b
:10398c000460010003003700090037000f00370006
:10399c001100370008109000981090000001710081
:1039ac008181710002149800131498000f003700e5
:1039bc00081090009810900061004000e0804800d2
:1039cc000014980011149800080037000214980095
:1039dc0013149800050037000000eb00e28f530031
:1039ec0026003200021498001314980010002000d6
:1039fc00808f530021003a00a0e28000e00f5000bd
:103a0c0011003a000885e8000a00780062330200d1
:103a1c000000000038099000b0e28000800f5100d7
:103a2c0001003600b2e288006a11b90080c521009d
:103a3c00020140008a00780002007800283302005e
:103a4c000000000004003700ec00440000c8210016
:103a5c002833020000000000f0e9800038099000d3
:103a6c00b008900010002000810f510003003600b8
:103a7c00e08f540001003200800c78004f05780074
:103a8c004f04be0000000600889fbe008a1f78000d
:103a9c000004be0028119000200020002014980083
:103aac00081090009810900061004000e0804800e1
:103abc000014980011149800e10f510021003a00f5
:103acc00a0e28000e00f500011003a000885e800e9
:103adc000a007800623302000000000038099000f0
:103aec00b0e28000800f510001003600b2e2880085
:103afc006a11b90080c52100020140008a007800db
:103b0c000200780028330200000000000400370097
:103b1c00ec00440000c82100283302000000000023
:103b2c00f0e98000b808900030089000808f5000b9
:103b3c0004003600e08f5400020032001000200018
:103b4c00800c78004f0578004f04be000000060082
:103b5c00889fbe0000047800e00f540001003a007a
:103b6c00f8e98000403102000000000028109000ad
:103b7c008004eb00e20f500003003a000000eb0061
:103b8c002014980019002000583102000000000099
:103b9c00090078004f04be0000000600889fbe009c
:103bac00000478008204780088119000e08f5100a6
:103bbc0026003200e08f54000e003a0028009000de
:103bcc00030178009006020000000000a80090009d
:103bdc00081090000080400020049800980090008d
:103bec00810f50001900390018007800200498004b
:103bfc001600370038009000030178009006020090
:103c0c0000000000881090008100ea00380090004d
:103c1c000100400030049800980f50000300310060
:103c2c00180090008100400031049800e28f54008d
:103c3c0006003a0068089000e00f500003003200c4
:103c4c00680890000000e900600c9800680890007b
:103c5c000000e800600c98000000eb004f04be0070
:103c6c00000006008101780000119000e00f510067
:103c7c000c003200b00090008280400031009800af
:103c8c0010029000848f50000200390090007800e0
:103c9c0031009800b00090000300780090060200fc
:103cac000000000000000600889fbe0000047800a1
:103cbc004031020000000000e808900019002000cc
:103ccc0078089000808f5000010032008004eb00d7
:103cdc005831020000000000090078004f04be00bb
:103cec0000000600881f78000004780040310200b4
:103cfc0000000000680c9000583102000000000029
:103d0c0010002000e00f5400010032000000eb0016
:103d1c004f04780000000600889fbe000004780065
:103d2c00403102000000000028109000e00f50000d
:103d3c001600340018089000e00f500005003a00ff
:103d4c001200370018089000e00f500002003a00f3
:103d5c000e003700f204440009007800c01902007c
:103d6c0000000000e00f500002003200a01a020018
:103d7c0000000000a81090008100e90021149800b8
:103d8c00a8109000e08f5000eeff3c000080eb008c
:103d9c00201498005831020000000000403102004d
:103dac000000000018109000e00f500016003400c6
:103dbc0048009000e00f500005003a001200370058
:103dcc0048009000e00f500002003a000e0037004f
:103ddc00e804440009007800c0190200000000004b
:103dec00e00f500002003200a01a02000000000098
:103dfc00981090008100e900111498009810900020
:103e0c00e08f5000eeff3c000080eb001014980097
:103e1c0058310200000000004f04be0000000600f4
:103e2c00889fbe000004be0040310200000000006c
:103e3c001802780078089000881090000089b9006a
:103e4c0002014200120498000001eb00620c980081
:103e5c00240498000000e9000180b9000000420031
:103e6c00300498000080eb00101498002014980087
:103e7c00828f54000c003a0048009000820f5000d2
:103e8c000f00320068004400c0190200000000005e
:103e9c00e10f50000a003a0032340200000000002a
:103eac0000000000060037006800440012330200d6
:103ebc0000000000720044001233020000000000f9
:103ecc005831020000000000100020004f04be001a
:103edc0000000600889fbe008a1f7800000578004d
:103eec00810478000001eb00828f54000200320044
:103efc000ac9b9000201e80060022000020040007b
:103f0c008234020000000000000478000000eb0086
:103f1c00800f54000c003200808f540002003a00d5
:103f2c00080c78000200370060022000000c4400ee
:103f3c007a0c9800091498001100200008007800f1
:103f4c00b7ff0700080078004f0578004f04be004b
:103f5c00000006000600fa00889fbe008a9fbe0083
:103f6c008c1f780001067800a2bf9f000305780023
:103f7c00000478008004eb00e805440040310200a6
:103f8c0000000000680a900078099000820f52002f
:103f9c0002003900e20f550019003a000a017800be
:103fac008c00780008007800fcfe07009808900050
:103fbc00e08f50000900320072004400c01902006a
:103fcc0000000000e10f500009003a0032340200fa
:103fdc00000000000000000005003700e00f50005a
:103fec000300320032340200000000000000000028
:103ffc005831020000000000100020004100370082
:10400c002fb99700e00f510004003a00583102001c
:10401c00000000000000eb003a003700e08f540075
:10402c0004003a0070805700521a02000000000091
:10403c00190020005831020000000000b8160200e0
:10404c000000000040310200000000001812900037
:10405c00e10f420002003a000000eb00101498003f
:10406c0028129000e10f420002003a000000eb0021
:10407c00201498005831020000000000ec8057001a
:10408c00708057005c1a020000000000e00f500026
:10409c0017003a000800780003ff0700e00f5000fb
:1040ac000e003200afb897000b00780060190200c8
:1040bc00000000000800780017ff070082170200bc
:1040cc0000000000e00f5000acff3a003234020058
:1040dc000000000000000000a8ff37000800780076
:1040ec000dff07008217020000000000a3ff37003d
:1040fc000800780008ff070082170200000000008b
:10410c000000eb004f0678004f05be004f04be00c8
:10411c000080fa0000000600889fbe008204780030
:10412c00000478006808900078099000820f500015
:10413c00030039000000eb00e28f510019003a0037
:10414c00030178000800780094fe07002810900006
:10415c00e10f40000f003a0098089000100020007a
:10416c00e08f50000f00320072004400c0190200b2
:10417c00000000008000780010002000e08f50004c
:10418c0008003200e08f540006003200800c7800ea
:10419c0004003700281090000000e800201498005c
:1041ac00100020004f04be0000000600881f78009d
:1041bc000104780000017800e2089000f2099000f8
:1041cc000000eb00838f5000190031006208900052
:1041dc000000e8006009980022109000e10f4000f8
:1041ec000f003a009208900010002000e08f500061
:1041fc000f00320072004100c019020000000000e4
:10420c008000780010002000e08f50000800320081
:10421c00e00f540006003200000c78000400370058
:10422c00221090000000e8002011980010002000df
:10423c004f047800000006000600fa00889fbe00bc
:10424c008a9fbe008c1f780001067800a2bf9f00d9
:10425c0083057800000478008004eb0072054400ac
:10426c00403102000000000068099000e00f51008e
:10427c0025003200b80490008c007800080078000b
:10428c0078fe0700e08f55000f003a006808900098
:10429c000000e900600c980048009000e00f50000e
:1042ac001500320068004400c01902000000000034
:1042bc00e10f500010003a00323402000000000000
:1042cc00000000000c00370039049800180890001a
:1042dc00e00f50000800320072004400c0190200c8
:1042ec0000000000e00f50000300320032340200e6
:1042fc000000000000000000583102000000000027
:10430c0010002000410037002fb99700e00f51003a
:10431c0004003a0058310200000000000000eb00dd
:10432c003a003700e08f540004003a0070805700c8
:10433c00521a02000000000019002000583102003f
:10434c0000000000b816020000000000403102001e
:10435c000000000018119000e10f410002003a002b
:10436c000000eb001014980028119000e10f4100a0
:10437c0002003a000000eb002014980058310200b3
:10438c0000000000ec805700708057005c1a02009f
:10439c0000000000e00f500017003a000800780001
:1043ac0050fe0700e00f50000e003200afb897002f
:1043bc000a00780060190200000000000800780074
:1043cc0055fe07008217020000000000e00f5000ad
:1043dc00a3ff3a003234020000000000000000008d
:1043ec009fff3700080078004bfe07008217020081
:1043fc00000000009aff37000800780046fe070016
:10440c0082170200000000000000eb004f0678004d
:10441c004f05be004f04be000080fa0000000600ed
:10442c00889fbe008204780000047800e8099000a0
:10443c000000eb00808f51001b0032000800780058
:10444c0008fe0700680890000000e900600c980066
:10445c0018109000e10f40000f003a00c8009000c7
:10446c0010002000e08f50000f0032006800440064
:10447c00c01902000000000080007800100020002d
:10448c00e08f500008003200e08f5400060032002c
:10449c00800c780004003700181090000000e80031
:1044ac0010149800100020004f04be0000000600fd
:1044bc00889fbe0000047800680990000000eb00a3
:1044cc00800f510005003200b804900008007800fd
:1044dc00e4fd070039049800100020004f04be00d2
:1044ec0000000600881f78000004780040310200ac
:1044fc0000000000680c9000583102000000000021
:10450c00080078004f04780000000600881f78002f
:10451c0000047800403102000000000068089000a0
:10452c00780c900000045400583102000000000088
:10453c00080078004f047800000006006008900026
:10454c0000000600c034020000000000000006005d
:10455c00e008900010002000e08f500001003200b5
:10456c000000eb0000000600600990001100200024
:10457c0070089000800f5100010032008000eb00a9
:10458c000100780000000600889fbe008a1f78009a
:10459c000105780082047800000478009302800002
:1045ac00ff3ffc0015028000f4f12f000482620032
:1045bc000450a000140288009302880000008800b8
:1045cc000000000008007800b7fd0700e00f500065
:1045dc001a003200e08f54000e003200e800440054
:1045ec00090078005e2902000000000090028000a3
:1045fc00ff3ffc00f1f12f008000fd004220b600cf
:10460c008000fd009002880000008800c0ff2f0091
:10461c003600370090028000ff3ffc00f1f12f00c4
:10462c008000fd004220b6008000fd009002880052
:10463c00000088000000eb002c0037009102800085
:10464c00ff3ffc00f0f12f004220b60091028800e1
:10465c000000880091028000ff3ffc0012028000e5
:10466c00000061000050a000100288009102880038
:10467c000000880000000000e80890007809900015
:10468c000000eb00828f5000100031000001eb00a5
:10469c008a0078000800780040fd07009808900018
:1046ac0010002000e08f500008003200720044001f
:1046bc00f62902000000000080007800b0ff2f00f7
:1046cc00e08f500001003a001000200091028000a1
:1046dc00ff3ffc00f2f12f000001fd004220b6006c
:1046ec000001fd0091028800000088004f05780051
:1046fc004f04be0000000600881f7800810178007e
:10470c000004780090028000ff3ffc00140280003f
:10471c00f1f12f00810062000150a000110288000d
:10472c0090028800000088000000000068089000db
:10473c00e00f50001a003a00e00f51000e0032005a
:10474c00f2004400020078005e2902000000000024
:10475c0090028000ff3ffc00f1f12f008000fd0073
:10476c004220b6008000fd00900288000000880006
:10477c00c0ff2f004100370090028000ff3ffc007b
:10478c00f1f12f008000fd004220b6008000fd00fa
:10479c0090028800000088000000eb003700370012
:1047ac0091028000ff3ffc00f0f12f004220b60088
:1047bc00910288000000880091028000ff3ffc00fd
:1047cc0012028000000061000050a000100288005e
:1047dc00910288000000880000000000e8089000aa
:1047ec000000eb00808f50001c003200081190007c
:1047fc0038009000020040003004980098009000af
:10480c00810f500002003900180078003004980025
:10481c00680890000000e900600c9800b800900057
:10482c00030078009006020000000000c800900011
:10483c0010002000e08f5000080032006800440097
:10484c00f62902000000000080007800b0ff2f0065
:10485c00e08f500001003a0010002000910280000f
:10486c00ff3ffc00f2f12f000001fd004220b600da
:10487c000001fd0091028800000088004f047800c0
:10488c0000000600889fbe008204780000047800b7
:10489c006808900078099000820f50000e003100db
:1048ac000001eb0008007800bcfc0700e08f54000e
:1048bc0009003a0018089000e00f50000600320082
:1048cc0072004400f629020000000000e00f5000c6
:1048dc000100320019002000090078004f04be00ce
:1048ec0000000600889fbe0000047800810178005b
:1048fc0082047800e80890000000eb00808f5000e4
:10490c002000320008109000b80090008080400019
:10491c003104980018019000828f50000200390079
:10492c009800780031049800e80890008100e900b4
:10493c00610c9800b800900000017800030078002a
:10494c009006020000000000100020008000eb0028
:10495c00998f10000b003a00c8009000e08f5000b7
:10496c000800320068004400f62902000000000034
:10497c008000780010002000e08f50000100320011
:10498c00800c78004f04be00000006000200fa0004
:10499c00889fbe008a1f780058052000e90a200075
:1049ac000000eb00fa18020000000000bc16020028
:1049bc0000000000000578008001eb00c3bf9f00e1
:1049cc0098e98800f20a2000e880570070e980001e
:1049dc00b01f020000000000e00f50000200320087
:1049ec001000200040e98800bc1602000000000006
:1049fc000a005000890f500002003e0011002000f8
:104a0c0041e98800e10b2000810f500002003600c4
:104a1c001000200040e9880098e988000000eb00b5
:104a2c00fa18020000000000bc1602000000000092
:104a3c000005780098e988008001eb00f20a20005c
:104a4c00e880570070e9800022210200000000007d
:104a5c00e00f5000020032001000200040e98800f6
:104a6c00bc160200000000000a005000890f500024
:104a7c0002003e001100200041e98800e10b2000fb
:104a8c00810f5000020036001000200040e9880021
:104a9c0098e98800263dec00c1ff37000400fa00bd
:104aac00889fbe008a9fbe008c1f7800580520008e
:104abc000001eb0092bf9f00ab002000825cdd0088
:104acc00bc16020000000000000578008001eb001d
:104adc0009017800ec80570070e980002221020067
:104aec0000000000e00f5000020032001000200017
:104afc0040e98800bc160200000000000a005000cb
:104b0c00808f5400020036001100200041e988001b
:104b1c00ef844400890f5000020036001000200082
:104b2c0040e988001fb897000001e80092bf9f0081
:104b3c00e40f5100e1ff34008000eb0091bf9f00b7
:104b4c008004eb001a00200089017800090178002c
:104b5c00ee80570070e98000b01f020000000000da
:104b6c00e10f5000010032004ae988009fb897001d
:104b7c000100e80090bf9f00e40f5000f2ff3400ea
:104b8c000001eb0092bf9f00ac0020001a00200037
:104b9c008264dd00bc160200000000008005780075
:104bac008001eb0009017800ee80570070e980006d
:104bbc00b01f020000000000e00f500001003200a6
:104bcc004ae98800bc160200000000000b005000ef
:104bdc00808f5400010036004ae98800ef844400bd
:104bec00890f5000010036004ae988001fb8970071
:104bfc000001e80092bf9f00e40f5100e4ff340075
:104c0c00323def0080e98000bc150200000000007e
:104c1c0090e98000880f5000070032004901200005
:104c2c0009007800141802000000000091e98000cf
:104c3c00888f5000faff3a0040012000141802003f
:104c4c00000000000000eb0090e9880090bf9f007e
:104c5c008001eb0003017800ec80570070e98000c4
:104c6c002221020000000000e10f5000020032007f
:104c7c001000200040e988008001eb00030178005f
:104c8c00ee80570070e98000b01f020000000000a9
:104c9c00e10f5000020032001000200040e98800b3
:104cac0090e98000880f500002003a0010002000ac
:104cbc0040e988003100200080e9800032150200b4
:104ccc000000000090e98000880f500002003a00bc
:104cdc001000200040e988008000eb0080e9800093
:104cec0032150200000000009fb897000100e80098
:104cfc0090bf9f00e40f5000d5ff340090e9800076
:104d0c00880f50000700320049012000090078008c
:104d1c00141802000000000091e98000888f5000f8
:104d2c00faff3a00400120001418020000000000b5
:104d3c000000eb0090e9880090bf9f001900200054
:104d4c008001eb0003017800ec80570070e98000d3
:104d5c002221020000000000e10f5000010032008f
:104d6c0049e988009fb897000100e80090bf9f00b8
:104d7c00e40f5000f2ff340080e98000bc15020003
:104d8c000000000090e98000880f500007003200fe
:104d9c0049012000090078001418020000000000ee
:104dac0091e98000888f5000faff3a004001200002
:104dbc0014180200000000000000eb0090e98800cd
:104dcc0090bf9f008001eb0003017800ee8057003c
:104ddc0070e98000b01f020000000000e10f5000dd
:104dec00020032001000200040e988008001eb0036
:104dfc0003017800ec80570070e98000222102004a
:104e0c0000000000e10f50000200320010002000f2
:104e1c0040e9880090e98000880f500002003a00b9
:104e2c001000200040e988003100200080e980005b
:104e3c00321502000000000090e98000880f50003d
:104e4c0002003a001000200040e988008000eb00ce
:104e5c0080e9800032150200000000009fb8970026
:104e6c000100e80090bf9f00e40f5000d5ff340014
:104e7c0090e98000880f50000700320049012000a3
:104e8c0009007800141802000000000091e980006d
:104e9c00888f5000faff3a004001200014180200dd
:104eac0000000000243dec0001ff37000041eb0046
:104ebc002100200050002000701f020000000000a4
:104ecc0070e988006033b800860278001400200076
:104edc00860178003207200001322900405522005b
:104eec007c140200000000006033b80005d32100e0
:104efc000602780086017800320720007132290002
:104f0c00c04c22007c1402000000000000000600cf
:104f1c0023e9800062e9800031e980000000eb00a9
:104f2c0054e98000848f5000040032000280690034
:104f3c008000ea00008070004f00de0041e9800034
:104f4c00e18f500001003a000000eb00261df80034
:104f5c002a1df900241df8002c1df9000000060084
:104f6c00889fbe008a9fbe00e0e58000e00f5000e5
:104f7c002a003200fbf12f000a0220009002800070
:104f8c00ff3ffc00110280008b8060008a80700063
:104f9c0011028800900288000000880000000000c8
:104fac0010e68000300490006c0044006233020074
:104fbc000000000090028000ff3ffc008005fd0017
:104fcc004220b6008005fd00900288000000880099
:104fdc008884e800090078006233020000000000b9
:104fec003809900030e68000800f51000100360037
:104ffc0032e688006a11b90080cc21000201400021
:10500c0089007800020078002833020000000000bc
:10501c00e0e58000e00f5000d8ff3a004f05be00dd
:10502c004f04be0000000600889fbe008a9fbe0091
:10503c00bc16020000000000e1e6800001005000f8
:10504c00f0e68800fbf12f000a0220004400370034
:10505c00e01cec0000e788008100e900f1e6880024
:10506c00e00f500004003a0011e78000e41cf80047
:10507c00e21cf90021e7880011e780000001eb0039
:10508c00910f110036003200b100900031049000f5
:10509c0098009000810f500007003100300037005d
:1050ac0030009000300490009800900000e78000e1
:1050bc00808f50002a003e0090028000ff3ffc00d1
:1050cc00110280008b8060008a80700011028800c1
:1050dc009002880000008800000000008884e8002e
:1050ec0009007800623302000000000028089000dc
:1050fc00e00f5000030032006c00440062330200e9
:10510c000000000090028000ff3ffc008005fd00c5
:10511c004220b6008005fd00900288000000880047
:10512c003809900030e68000800f510001003600f5
:10513c0032e688006a11b90080cc210002014000df
:10514c00890078000200780028330200000000007b
:10515c0010e780008000eb00908f1000d0ff3a0029
:10516c00f1e68000e08f5000b9ff3a00e01cf80037
:10517c00dc1cf9004f05be004f04be000000060009
:10518c00889fbe000004eb0089cc21006a40b90066
:10519c000080440012330200000000000804e80004
:1051ac00e10f5400f9ff360060ce210012330200eb
:1051bc000000000000cf21001233020000000000ac
:1051cc00c0cb2100123302000000000060ce210091
:1051dc0010e7880000cf210020e788004f04be00b4
:1051ec0000000600889fbe008a9fbe0080057800e4
:1051fc000105780082047800c0012000823402008e
:10520c0000000000000478000080eb00e00f540068
:10521c0024003200d0e98000e00f500002003a0078
:10522c00d8e98800d6ff0700e00f550001003200d6
:10523c001a0020000000eb00500c98003a0c98006b
:10524c00490c9800880478008b1c780009007800c1
:10525c0022330200000000006c00440022330200e4
:10526c000000000048049800180c98006205150016
:10527c006a0498003808900031e68000810f5000d5
:10528c000100360030e688006a00b90082cc2100ab
:10529c000000410089007800283302000000000063
:1052ac00100020004f05be004f04be000000060099
:1052bc00889fbe008104780008e780000804400045
:1052cc003a9dec006233020000000000d2e980003d
:1052dc001801980000e78000800f54000500310091
:1052ec008280e80020e780003c33020000000000d0
:1052fc00040037008280e80010e780003c33020095
:10530c0000000000e08f540005003200d1e980005d
:10531c00ec804000090078003c33020000000000e3
:10532c004f04be00000006000dff07003eff070003
:10533c0030e680006a01b90081cc2100e1007900df
:10534c00e08f50000c003a00e00f500003003a00d0
:10535c0022003700e00f5000200032000000e9006e
:10536c0030e688006a01b90081cc2100e1007900a7
:10537c00e08f5000f7ff32006a01b900820078001c
:10538c000181e80083cc21006301790012019000b7
:10539c000382e80002b27800e48040008381400080
:1053ac00830f510004003a006a02b900a1cc21001d
:1053bc001201900082307a006a00b9000080e80087
:1053cc0081cc21006100780030009000d0e9880089
:1053dc00c0089000100178000200010000000600d7
:1053ec00889fbe003000900030049000ec04440014
:1053fc000900780062330200000000008900780088
:10540c00c0cb210028330200000000001000200057
:10541c0038099000d1e98000b1089000810f51004b
:10542c00010031000000eb004f04be00000006003c
:10543c000200fa00889fbe008a9fbe000005eb00a8
:10544c00babf9f00000478008004eb001b00200012
:10545c00010037000b0578001801900089017800d5
:10546c00ea80570018007800b01f0200000000000e
:10547c00e10f5000f7ff3a00e00f550002003a0030
:10548c00280090001008e8003fb897000000e800e2
:10549c00b0bf9f00f0ff37000200fa00889fbe00eb
:1054ac008a9fbe008c1f7800000478008005eb00fa
:1054bc000b0578008004eb001c0020000200370074
:1054cc00000578008c05780018019000890178009f
:1054dc00ec80570018007800222102000000000028
:1054ec00e10f5000f8ff3a002fb897008a0f5000d8
:1054fc00f3ff3a00e08f550002003a00a80090003c
:10550c009108e8000005e800efff3700889fbe0017
:10551c008a9fbe008c1f7800000678006000200077
:10552c008234020000000000800478000041eb008f
:10553c002100200010002000701f0200000000005d
:10554c00800c78008b3e20009b049800a0cf21009b
:10555c00a0049800600020008234020000000000cb
:10556c0000057800190d78000004eb001805980070
:10557c0000d02100200598008803780008037800eb
:10558c00880278000c02780089017800320720002c
:10559c00c128290020a522007c1402000000000074
:1055ac0088037800080378008802780008027800e5
:1055bc008a0178003207200041292900e0a122004d
:1055cc007c14020000000000600020008234020005
:1055dc0000000000800478000841780021002000c1
:1055ec0010002000701f020000000000800c7800ea
:1055fc009804980020d02100a0049800600020009e
:10560c00823402000000000000057800190d7800bb
:10561c001b059800c0cf2100200598008803780056
:10562c000803780088027800080278008901780065
:10563c0032072000c129290020a522007c14020079
:10564c0000000000880378000803780088027800c6
:10565c000c0278008a01780032072000412a2900c8
:10566c00e0a122007c140200000000006000200079
:10567c0082340200000000008004780008417800a9
:10568c002100200050002000701f020000000000cc
:10569c00800c78009b04980040d02100a004980056
:1056ac006000200082340200000000000005780039
:1056bc00190d78001b059800e0cf210020059800fb
:1056cc0088037800080378008802780008027800c4
:1056dc008901780032072000c12a2900e0a12200ac
:1056ec007c14020000000000880378000803780096
:1056fc0088027800080278008a01780032072000be
:10570c00412b290020a522007c140200000000007f
:10571c004f0678004f05be004f04be000000060087
:10572c008000eb00100020008002eb0001814000a3
:10573c00a3cf2100e3017900c4d0210064017900da
:10574c00828f510001003a00050078000181400071
:10575c00c3d02100a4cf2100e431790003d0210073
:10576c00e301790064d0210064017900828f51003b
:10577c0001003a00050078000181400063d021004f
:10578c0004d02100e43179008100e800e28f500060
:10579c00e6ff340000000600889fbe008a1f7800d8
:1057ac000004be00020578000041eb00110020004f
:1057bc000a007800701f020000000000c0e9880099
:1057cc000041eb00110020000a007800701f02005d
:1057dc0000000000a0e988003062a9003002a90096
:1057ec0090ff2f003022b6003082a90030a2a90011
:1057fc0030c2a90030e2a900f0cf2f003022b60051
:10580c003182a90031a2a90031e2a8000800be0033
:10581c00ca0402000000000002002000031824004b
:10582c0074050200000000000001be0000402200d0
:10583c0041b72400f2030200000000000200200027
:10584c0003f0230036030200000000009404020061
:10585c0000000000c0118800f0f32f003222b600c7
:10586c003342a80033c2a90033a2a90033e2a90035
:10587c0090028000ff3ffc0012028000f1f12f002b
:10588c00810061000150a000110288009002880084
:10589c00000088000000000087c0a90087e0a90074
:1058ac0091058000f08f2f00008060000080a00028
:1058bc009005880091058000f0ff280000806000b2
:1058cc0000c0a0009005880097e0a80097c0a80031
:1058dc003202ab0003003200b01180003202ab0088
:1058ec00fdff3a0010002000b0e988000000eb003a
:1058fc004f0578004f04be00000006008001eb004d
:10590c00c0e9800022210200000000008000ea00b3
:10591c00008070004f00de00000006000200fa005c
:10592c00e1ff9f008001eb008f80e900a0e980007f
:10593c00b01f020000000000800078000000eb00a7
:10594c00e18f500006003a0010002000b1e9800001
:10595c00e08f500002003200363def0087e0a800d7
:10596c000080fa0000000600000006003600f80077
:10597c00809fbe00829fbe00849fbe00869fbe009b
:10598c00881f78003400f80000002000a001880077
:10599c000400fa000000eb00f0bf9f0087c0a900d4
:1059ac003202ab000b0032000004eb00b01180009f
:1059bc00c0ff9f00880178000f81e900e480570048
:1059cc00c0e9800092200200000000003202ab000f
:1059dc00f6ff3a007fb89700e00f5000030032004a
:1059ec003234020000000000000000000080fa00c9
:1059fc003400f9004f0478004f03be004f02be0084
:105a0c004f01be004f00be003600f90000400600fa
:105a1c003600f800809fbe00829fbe00849fbe00af
:105a2c00869fbe00881f78003400f800000020001c
:105a3c00a00188000400fa000000eb00f0bf9f00fa
:105a4c0087e0a9003322ab0011003a0008202000a7
:105a5c000f81e900e4805700a0e9800016220200c3
:105a6c0000000000e10f500007003a00cff897004b
:105a7c000100fb00a011880090118000080060005c
:105a8c00f3ff32000200370010002000b0e988005c
:105a9c007fb89700e00f5000030032003234020050
:105aac0000000000000000000080fa003400f90043
